{
  "contractName": "Certification",
  "abi": [
    {
      "inputs": [
        {
          "internalType": "contract Institution",
          "name": "_institution",
          "type": "address"
        }
      ],
      "payable": false,
      "stateMutability": "nonpayable",
      "type": "constructor"
    },
    {
      "anonymous": false,
      "inputs": [
        {
          "indexed": false,
          "internalType": "bytes32",
          "name": "_certificateId",
          "type": "bytes32"
        }
      ],
      "name": "certificateGenerated",
      "type": "event"
    },
    {
      "constant": true,
      "inputs": [],
      "name": "institution",
      "outputs": [
        {
          "internalType": "contract Institution",
          "name": "",
          "type": "address"
        }
      ],
      "payable": false,
      "stateMutability": "view",
      "type": "function"
    },
    {
      "constant": true,
      "inputs": [],
      "name": "owner",
      "outputs": [
        {
          "internalType": "address",
          "name": "",
          "type": "address"
        }
      ],
      "payable": false,
      "stateMutability": "view",
      "type": "function"
    },
    {
      "constant": false,
      "inputs": [
        {
          "internalType": "string",
          "name": "_id",
          "type": "string"
        },
        {
          "internalType": "string",
          "name": "_candidate_name",
          "type": "string"
        },
        {
          "internalType": "string",
          "name": "_course_name",
          "type": "string"
        },
        {
          "internalType": "uint256",
          "name": "_creation_date",
          "type": "uint256"
        }
      ],
      "name": "generateCertificate",
      "outputs": [],
      "payable": false,
      "stateMutability": "nonpayable",
      "type": "function"
    },
    {
      "constant": true,
      "inputs": [
        {
          "internalType": "string",
          "name": "_id",
          "type": "string"
        }
      ],
      "name": "getData",
      "outputs": [
        {
          "internalType": "string",
          "name": "",
          "type": "string"
        },
        {
          "internalType": "string",
          "name": "",
          "type": "string"
        },
        {
          "internalType": "uint256",
          "name": "",
          "type": "uint256"
        },
        {
          "internalType": "string",
          "name": "",
          "type": "string"
        },
        {
          "internalType": "string",
          "name": "",
          "type": "string"
        },
        {
          "internalType": "string",
          "name": "",
          "type": "string"
        },
        {
          "internalType": "bool",
          "name": "",
          "type": "bool"
        }
      ],
      "payable": false,
      "stateMutability": "view",
      "type": "function"
    }
  ],
  "bytecode": "0x60806040523480156200001157600080fd5b5060405162001418380380620014188339818101604052620000379190810190620000d6565b336000806101000a81548173ffffffffffffffffffffffffffffffffffffffff021916908373ffffffffffffffffffffffffffffffffffffffff16021790555080600160006101000a81548173ffffffffffffffffffffffffffffffffffffffff021916908373ffffffffffffffffffffffffffffffffffffffff1602179055505062000164565b600081519050620000d0816200014a565b92915050565b600060208284031215620000e957600080fd5b6000620000f984828501620000bf565b91505092915050565b60006200010f826200012a565b9050919050565b6000620001238262000102565b9050919050565b600073ffffffffffffffffffffffffffffffffffffffff82169050919050565b620001558162000116565b81146200016157600080fd5b50565b6112a480620001746000396000f3fe608060405234801561001057600080fd5b506004361061004c5760003560e01c806354b6a039146100515780638da5cb5b1461006d578063ae55c8881461008b578063d1384eb6146100c1575b600080fd5b61006b60048036036100669190810190610ce9565b6100df565b005b610075610442565b6040516100829190610f0d565b60405180910390f35b6100a560048036036100a09190810190610be5565b610467565b6040516100b89796959493929190610f79565b60405180910390f35b6100c961089d565b6040516100d69190610f5e565b60405180910390f35b60011515600160009054906101000a900473ffffffffffffffffffffffffffffffffffffffff1673ffffffffffffffffffffffffffffffffffffffff1663b350ce3c336040518263ffffffff1660e01b815260040161013e9190610f28565b60206040518083038186803b15801561015657600080fd5b505afa15801561016a573d6000803e3d6000fd5b505050506040513d601f19601f8201168201806040525061018e9190810190610bbc565b1515146101d0576040517f08c379a00000000000000000000000000000000000000000000000000000000081526004016101c79061102b565b60405180910390fd5b60006101db856108c3565b90506000600260008381526020019081526020016000206002015414610236576040517f08c379a000000000000000000000000000000000000000000000000000000000815260040161022d9061104b565b60405180910390fd5b606080606080600160009054906101000a900473ffffffffffffffffffffffffffffffffffffffff1673ffffffffffffffffffffffffffffffffffffffff16637c0edcdf336040518263ffffffff1660e01b81526004016102979190610f28565b60006040518083038186803b1580156102af57600080fd5b505afa1580156102c3573d6000803e3d6000fd5b505050506040513d6000823e3d601f19601f820116820180604052506102ec9190810190610c26565b935093509350935060008090506040518060e001604052808a815260200189815260200188815260200186815260200185815260200184815260200182151581525060026000888152602001908152602001600020600082015181600001908051906020019061035d9291906108ee565b50602082015181600101908051906020019061037a9291906108ee565b506040820151816002015560608201518160030190805190602001906103a19291906108ee565b5060808201518160040190805190602001906103be9291906108ee565b5060a08201518160050190805190602001906103db9291906108ee565b5060c08201518160060160006101000a81548160ff0219169083151502179055509050507ff54e0f0055ffae318a21890316ed523f8a60aa59aaa279dfdcae7176155ec0db8660405161042e9190610f43565b60405180910390a150505050505050505050565b6000809054906101000a900473ffffffffffffffffffffffffffffffffffffffff1681565b6060806000606080606060008061047d896108c3565b905061048761096e565b600260008381526020019081526020016000206040518060e0016040529081600082018054600181600116156101000203166002900480601f01602080910402602001604051908101604052809291908181526020018280546001816001161561010002031660029004801561053e5780601f106105135761010080835404028352916020019161053e565b820191906000526020600020905b81548152906001019060200180831161052157829003601f168201915b50505050508152602001600182018054600181600116156101000203166002900480601f0160208091040260200160405190810160405280929190818152602001828054600181600116156101000203166002900480156105e05780601f106105b5576101008083540402835291602001916105e0565b820191906000526020600020905b8154815290600101906020018083116105c357829003601f168201915b5050505050815260200160028201548152602001600382018054600181600116156101000203166002900480601f01602080910402602001604051908101604052809291908181526020018280546001816001161561010002031660029004801561068c5780601f106106615761010080835404028352916020019161068c565b820191906000526020600020905b81548152906001019060200180831161066f57829003601f168201915b50505050508152602001600482018054600181600116156101000203166002900480601f01602080910402602001604051908101604052809291908181526020018280546001816001161561010002031660029004801561072e5780601f106107035761010080835404028352916020019161072e565b820191906000526020600020905b81548152906001019060200180831161071157829003601f168201915b50505050508152602001600582018054600181600116156101000203166002900480601f0160208091040260200160405190810160405280929190818152602001828054600181600116156101000203166002900480156107d05780601f106107a5576101008083540402835291602001916107d0565b820191906000526020600020905b8154815290600101906020018083116107b357829003601f168201915b505050505081526020016006820160009054906101000a900460ff1615151515815250509050600060026000848152602001908152602001600020600201541415610850576040517f08c379a00000000000000000000000000000000000000000000000000000000081526004016108479061100b565b60405180910390fd5b806000015181602001518260400151836060015184608001518560a001518660c0015186965085955083935082925081915098509850985098509850985098505050919395979092949650565b600160009054906101000a900473ffffffffffffffffffffffffffffffffffffffff1681565b600060608290506000815114156108e0576000801b9150506108e9565b60208301519150505b919050565b828054600181600116156101000203166002900490600052602060002090601f016020900481019282601f1061092f57805160ff191683800117855561095d565b8280016001018555821561095d579182015b8281111561095c578251825591602001919060010190610941565b5b50905061096a91906109ad565b5090565b6040518060e001604052806060815260200160608152602001600081526020016060815260200160608152602001606081526020016000151581525090565b6109cf91905b808211156109cb5760008160009055506001016109b3565b5090565b90565b600082601f8301126109e357600080fd5b81516109f66109f182611098565b61106b565b9150818183526020840193506020810190508360005b83811015610a3c5781518601610a228882610b57565b845260208401935060208301925050600181019050610a0c565b5050505092915050565b600081519050610a5581611233565b92915050565b600082601f830112610a6c57600080fd5b8151610a7f610a7a826110c0565b61106b565b91508082526020830160208301858383011115610a9b57600080fd5b610aa68382846111ef565b50505092915050565b600082601f830112610ac057600080fd5b8135610ad3610ace826110ec565b61106b565b91508082526020830160208301858383011115610aef57600080fd5b610afa8382846111e0565b50505092915050565b600082601f830112610b1457600080fd5b8151610b27610b22826110ec565b61106b565b91508082526020830160208301858383011115610b4357600080fd5b610b4e8382846111ef565b50505092915050565b600060208284031215610b6957600080fd5b610b73602061106b565b9050600082015167ffffffffffffffff811115610b8f57600080fd5b610b9b84828501610a5b565b60008301525092915050565b600081359050610bb68161124a565b92915050565b600060208284031215610bce57600080fd5b6000610bdc84828501610a46565b91505092915050565b600060208284031215610bf757600080fd5b600082013567ffffffffffffffff811115610c1157600080fd5b610c1d84828501610aaf565b91505092915050565b60008060008060808587031215610c3c57600080fd5b600085015167ffffffffffffffff811115610c5657600080fd5b610c6287828801610b03565b945050602085015167ffffffffffffffff811115610c7f57600080fd5b610c8b87828801610b03565b935050604085015167ffffffffffffffff811115610ca857600080fd5b610cb487828801610b03565b925050606085015167ffffffffffffffff811115610cd157600080fd5b610cdd878288016109d2565b91505092959194509250565b60008060008060808587031215610cff57600080fd5b600085013567ffffffffffffffff811115610d1957600080fd5b610d2587828801610aaf565b945050602085013567ffffffffffffffff811115610d4257600080fd5b610d4e87828801610aaf565b935050604085013567ffffffffffffffff811115610d6b57600080fd5b610d7787828801610aaf565b9250506060610d8887828801610ba7565b91505092959194509250565b610d9d81611186565b82525050565b610dac81611134565b82525050565b610dbb81611146565b82525050565b610dca81611152565b82525050565b610dd981611198565b82525050565b6000610dea82611118565b610df48185611123565b9350610e048185602086016111ef565b610e0d81611222565b840191505092915050565b6000610e25601e83611123565b91507f436572746966696361746520696420646f6573206e6f742065786973742100006000830152602082019050919050565b6000610e65602083611123565b91507f496e73746974757465206163636f756e7420646f6573206e6f742065786973746000830152602082019050919050565b6000610ea5602883611123565b91507f4365727469666963617465207769746820676976656e20696420616c7265616460008301527f79206578697374730000000000000000000000000000000000000000000000006020830152604082019050919050565b610f078161117c565b82525050565b6000602082019050610f226000830184610da3565b92915050565b6000602082019050610f3d6000830184610d94565b92915050565b6000602082019050610f586000830184610dc1565b92915050565b6000602082019050610f736000830184610dd0565b92915050565b600060e0820190508181036000830152610f93818a610ddf565b90508181036020830152610fa78189610ddf565b9050610fb66040830188610efe565b8181036060830152610fc88187610ddf565b90508181036080830152610fdc8186610ddf565b905081810360a0830152610ff08185610ddf565b9050610fff60c0830184610db2565b98975050505050505050565b6000602082019050818103600083015261102481610e18565b9050919050565b6000602082019050818103600083015261104481610e58565b9050919050565b6000602082019050818103600083015261106481610e98565b9050919050565b6000604051905081810181811067ffffffffffffffff8211171561108e57600080fd5b8060405250919050565b600067ffffffffffffffff8211156110af57600080fd5b602082029050602081019050919050565b600067ffffffffffffffff8211156110d757600080fd5b601f19601f8301169050602081019050919050565b600067ffffffffffffffff82111561110357600080fd5b601f19601f8301169050602081019050919050565b600081519050919050565b600082825260208201905092915050565b600061113f8261115c565b9050919050565b60008115159050919050565b6000819050919050565b600073ffffffffffffffffffffffffffffffffffffffff82169050919050565b6000819050919050565b6000611191826111bc565b9050919050565b60006111a3826111aa565b9050919050565b60006111b58261115c565b9050919050565b60006111c7826111ce565b9050919050565b60006111d98261115c565b9050919050565b82818337600083830152505050565b60005b8381101561120d5780820151818401526020810190506111f2565b8381111561121c576000848401525b50505050565b6000601f19601f8301169050919050565b61123c81611146565b811461124757600080fd5b50565b6112538161117c565b811461125e57600080fd5b5056fea365627a7a723158207b633685bc4acac517e9da3e68cf31abb4dd1ec00f3c1f46b3351a94d370376d6c6578706572696d656e74616cf564736f6c63430005100040",
  "source": "pragma solidity ^0.5.0;\r\npragma experimental ABIEncoderV2;\r\n\r\nimport \"./Institution.sol\";\r\n\r\ncontract Certification {\r\n    // State Variables\r\n    address public owner;\r\n    Institution public institution;\r\n\r\n    // Mappings\r\n    mapping(bytes32 => Certificate) private certificates;\r\n\r\n    // Events\r\n    event certificateGenerated(bytes32 _certificateId);\r\n\r\n    constructor(Institution _institution) public {\r\n        owner = msg.sender;\r\n        institution = _institution;\r\n    }\r\n\r\n    struct Certificate {\r\n        // Individual Info\r\n        string candidate_name;\r\n        string course_name;\r\n        uint256 creation_date;\r\n\r\n        // Institute Info\r\n        string institute_name;\r\n        string institute_acronym;\r\n        string institute_link;\r\n\r\n        // Revocation status\r\n        bool revoked;\r\n    }\r\n\r\n    function stringToBytes32(string memory source) private pure returns (bytes32 result) {\r\n        bytes memory tempEmptyStringTest = bytes(source);\r\n        if (tempEmptyStringTest.length == 0) {\r\n            return 0x0;\r\n        }\r\n        assembly {\r\n                result := mload(add(source, 32))\r\n        }\r\n    }\r\n\r\n    function generateCertificate(\r\n        string memory _id,\r\n        string memory _candidate_name,\r\n        string memory _course_name, \r\n        uint256 _creation_date) public {\r\n        require(institution.checkInstitutePermission(msg.sender) == true, \"Institute account does not exist\");\r\n        bytes32 byte_id = stringToBytes32(_id);\r\n        require(certificates[byte_id].creation_date == 0, \"Certificate with given id already exists\");\r\n        (string memory _institute_name, string memory _institute_acronym, string memory _institute_link, Institution.Course[] memory _) = institution.getInstituteData(msg.sender);\r\n        bool revocation_status = false;\r\n        certificates[byte_id] = Certificate(_candidate_name, _course_name, _creation_date, _institute_name, _institute_acronym, _institute_link, revocation_status);\r\n        emit certificateGenerated(byte_id);\r\n    }\r\n\r\n    function getData(string memory _id) public view returns(string memory, string memory, uint256, string memory, string memory, string memory, bool) {\r\n        bytes32 byte_id = stringToBytes32(_id);\r\n        Certificate memory temp = certificates[byte_id];\r\n        require(certificates[byte_id].creation_date != 0, \"Certificate id does not exist!\");\r\n        return (temp.candidate_name, temp.course_name, temp.creation_date, temp.institute_name, temp.institute_acronym, temp.institute_link, temp.revoked);\r\n    }\r\n}",
  "sourcePath": "C:\\Users\\daryl\\Desktop\\SUTD school materials\\T8-BlockchainTechnology\\Project\\satoshi-certs\\contracts\\Certification.sol",
  "compiler": {
    "name": "solc",
    "version": "0.5.16+commit.9c3226ce.Emscripten.clang"
  },
  "schemaVersion": "3.4.2",
  "updatedAt": "2021-08-10T22:31:05.101Z",
  "networkType": "ethereum",
  "devdoc": {
    "methods": {}
  },
  "userdoc": {
    "methods": {}
  }
}