{
  "contractName": "Certification",
  "abi": [
    {
      "inputs": [
        {
          "internalType": "contract Institution",
          "name": "_institution",
          "type": "address"
        }
      ],
      "payable": false,
      "stateMutability": "nonpayable",
      "type": "constructor"
    },
    {
      "anonymous": false,
      "inputs": [
        {
          "indexed": false,
          "internalType": "bytes32",
          "name": "_certificateId",
          "type": "bytes32"
        }
      ],
      "name": "certificateGenerated",
      "type": "event"
    },
    {
      "constant": true,
      "inputs": [],
      "name": "institution",
      "outputs": [
        {
          "internalType": "contract Institution",
          "name": "",
          "type": "address"
        }
      ],
      "payable": false,
      "stateMutability": "view",
      "type": "function"
    },
    {
      "constant": true,
      "inputs": [],
      "name": "owner",
      "outputs": [
        {
          "internalType": "address",
          "name": "",
          "type": "address"
        }
      ],
      "payable": false,
      "stateMutability": "view",
      "type": "function"
    },
    {
      "constant": false,
      "inputs": [
        {
          "internalType": "string",
          "name": "_id",
          "type": "string"
        },
        {
          "internalType": "string",
          "name": "_candidate_name",
          "type": "string"
        },
        {
          "internalType": "uint256",
          "name": "_course_index",
          "type": "uint256"
        },
        {
          "internalType": "string",
          "name": "_creation_date",
          "type": "string"
        }
      ],
      "name": "generateCertificate",
      "outputs": [],
      "payable": false,
      "stateMutability": "nonpayable",
      "type": "function"
    },
    {
      "constant": true,
      "inputs": [
        {
          "internalType": "string",
          "name": "_id",
          "type": "string"
        }
      ],
      "name": "getData",
      "outputs": [
        {
          "internalType": "string",
          "name": "",
          "type": "string"
        },
        {
          "internalType": "string",
          "name": "",
          "type": "string"
        },
        {
          "internalType": "string",
          "name": "",
          "type": "string"
        },
        {
          "internalType": "string",
          "name": "",
          "type": "string"
        },
        {
          "internalType": "string",
          "name": "",
          "type": "string"
        },
        {
          "internalType": "string",
          "name": "",
          "type": "string"
        },
        {
          "internalType": "bool",
          "name": "",
          "type": "bool"
        }
      ],
      "payable": false,
      "stateMutability": "view",
      "type": "function"
    }
  ],
  "bytecode": "0x60806040523480156200001157600080fd5b50604051620016c8380380620016c88339818101604052620000379190810190620000d6565b336000806101000a81548173ffffffffffffffffffffffffffffffffffffffff021916908373ffffffffffffffffffffffffffffffffffffffff16021790555080600160006101000a81548173ffffffffffffffffffffffffffffffffffffffff021916908373ffffffffffffffffffffffffffffffffffffffff1602179055505062000164565b600081519050620000d0816200014a565b92915050565b600060208284031215620000e957600080fd5b6000620000f984828501620000bf565b91505092915050565b60006200010f826200012a565b9050919050565b6000620001238262000102565b9050919050565b600073ffffffffffffffffffffffffffffffffffffffff82169050919050565b620001558162000116565b81146200016157600080fd5b50565b61155480620001746000396000f3fe608060405234801561001057600080fd5b506004361061004c5760003560e01c80638da5cb5b14610051578063a0e1995e1461006f578063ae55c8881461008b578063d1384eb6146100c1575b600080fd5b6100596100df565b6040516100669190611196565b60405180910390f35b61008960048036036100849190810190610f41565b610104565b005b6100a560048036036100a09190810190610e3d565b610586565b6040516100b89796959493929190611202565b60405180910390f35b6100c9610af5565b6040516100d691906111e7565b60405180910390f35b6000809054906101000a900473ffffffffffffffffffffffffffffffffffffffff1681565b60011515600160009054906101000a900473ffffffffffffffffffffffffffffffffffffffff1673ffffffffffffffffffffffffffffffffffffffff1663b350ce3c336040518263ffffffff1660e01b815260040161016391906111b1565b60206040518083038186803b15801561017b57600080fd5b505afa15801561018f573d6000803e3d6000fd5b505050506040513d601f19601f820116820180604052506101b39190810190610e14565b1515146101f5576040517f08c379a00000000000000000000000000000000000000000000000000000000081526004016101ec9061129b565b60405180910390fd5b600061020085610b1b565b90506060600260008381526020019081526020016000206002018054600181600116156101000203166002900480601f0160208091040260200160405190810160405280929190818152602001828054600181600116156101000203166002900480156102ae5780601f10610283576101008083540402835291602001916102ae565b820191906000526020600020905b81548152906001019060200180831161029157829003601f168201915b5050505050905060008151146102f9576040517f08c379a00000000000000000000000000000000000000000000000000000000081526004016102f0906112bb565b60405180910390fd5b606080606080600160009054906101000a900473ffffffffffffffffffffffffffffffffffffffff1673ffffffffffffffffffffffffffffffffffffffff16637c0edcdf336040518263ffffffff1660e01b815260040161035a91906111b1565b60006040518083038186803b15801561037257600080fd5b505afa158015610386573d6000803e3d6000fd5b505050506040513d6000823e3d601f19601f820116820180604052506103af9190810190610e7e565b9350935093509350600088101580156103c85750805188105b610407576040517f08c379a00000000000000000000000000000000000000000000000000000000081526004016103fe906112fb565b60405180910390fd5b606081898151811061041557fe5b602002602001015160000151905060008090506040518060e001604052808c81526020018381526020018a8152602001878152602001868152602001858152602001821515815250600260008a8152602001908152602001600020600082015181600001908051906020019061048c929190610b46565b5060208201518160010190805190602001906104a9929190610b46565b5060408201518160020190805190602001906104c6929190610b46565b5060608201518160030190805190602001906104e3929190610b46565b506080820151816004019080519060200190610500929190610b46565b5060a082015181600501908051906020019061051d929190610b46565b5060c08201518160060160006101000a81548160ff0219169083151502179055509050507ff54e0f0055ffae318a21890316ed523f8a60aa59aaa279dfdcae7176155ec0db8860405161057091906111cc565b60405180910390a1505050505050505050505050565b60608060608060608060008061059b89610b1b565b90506105a5610bc6565b600260008381526020019081526020016000206040518060e0016040529081600082018054600181600116156101000203166002900480601f01602080910402602001604051908101604052809291908181526020018280546001816001161561010002031660029004801561065c5780601f106106315761010080835404028352916020019161065c565b820191906000526020600020905b81548152906001019060200180831161063f57829003601f168201915b50505050508152602001600182018054600181600116156101000203166002900480601f0160208091040260200160405190810160405280929190818152602001828054600181600116156101000203166002900480156106fe5780601f106106d3576101008083540402835291602001916106fe565b820191906000526020600020905b8154815290600101906020018083116106e157829003601f168201915b50505050508152602001600282018054600181600116156101000203166002900480601f0160208091040260200160405190810160405280929190818152602001828054600181600116156101000203166002900480156107a05780601f10610775576101008083540402835291602001916107a0565b820191906000526020600020905b81548152906001019060200180831161078357829003601f168201915b50505050508152602001600382018054600181600116156101000203166002900480601f0160208091040260200160405190810160405280929190818152602001828054600181600116156101000203166002900480156108425780601f1061081757610100808354040283529160200191610842565b820191906000526020600020905b81548152906001019060200180831161082557829003601f168201915b50505050508152602001600482018054600181600116156101000203166002900480601f0160208091040260200160405190810160405280929190818152602001828054600181600116156101000203166002900480156108e45780601f106108b9576101008083540402835291602001916108e4565b820191906000526020600020905b8154815290600101906020018083116108c757829003601f168201915b50505050508152602001600582018054600181600116156101000203166002900480601f0160208091040260200160405190810160405280929190818152602001828054600181600116156101000203166002900480156109865780601f1061095b57610100808354040283529160200191610986565b820191906000526020600020905b81548152906001019060200180831161096957829003601f168201915b505050505081526020016006820160009054906101000a900460ff16151515158152505090506060600260008481526020019081526020016000206002018054600181600116156101000203166002900480601f016020809104026020016040519081016040528092919081815260200182805460018160011615610100020316600290048015610a585780601f10610a2d57610100808354040283529160200191610a58565b820191906000526020600020905b815481529060010190602001808311610a3b57829003601f168201915b50505050509050600081511415610aa4576040517f08c379a0000000000000000000000000000000000000000000000000000000008152600401610a9b906112db565b60405180910390fd5b816000015182602001518360400151846060015185608001518660a001518760c001518696508595508494508393508292508191509950995099509950995099509950505050919395979092949650565b600160009054906101000a900473ffffffffffffffffffffffffffffffffffffffff1681565b60006060829050600081511415610b38576000801b915050610b41565b60208301519150505b919050565b828054600181600116156101000203166002900490600052602060002090601f016020900481019282601f10610b8757805160ff1916838001178555610bb5565b82800160010185558215610bb5579182015b82811115610bb4578251825591602001919060010190610b99565b5b509050610bc29190610c05565b5090565b6040518060e001604052806060815260200160608152602001606081526020016060815260200160608152602001606081526020016000151581525090565b610c2791905b80821115610c23576000816000905550600101610c0b565b5090565b90565b600082601f830112610c3b57600080fd5b8151610c4e610c4982611348565b61131b565b9150818183526020840193506020810190508360005b83811015610c945781518601610c7a8882610daf565b845260208401935060208301925050600181019050610c64565b5050505092915050565b600081519050610cad816114e3565b92915050565b600082601f830112610cc457600080fd5b8151610cd7610cd282611370565b61131b565b91508082526020830160208301858383011115610cf357600080fd5b610cfe83828461149f565b50505092915050565b600082601f830112610d1857600080fd5b8135610d2b610d268261139c565b61131b565b91508082526020830160208301858383011115610d4757600080fd5b610d52838284611490565b50505092915050565b600082601f830112610d6c57600080fd5b8151610d7f610d7a8261139c565b61131b565b91508082526020830160208301858383011115610d9b57600080fd5b610da683828461149f565b50505092915050565b600060208284031215610dc157600080fd5b610dcb602061131b565b9050600082015167ffffffffffffffff811115610de757600080fd5b610df384828501610cb3565b60008301525092915050565b600081359050610e0e816114fa565b92915050565b600060208284031215610e2657600080fd5b6000610e3484828501610c9e565b91505092915050565b600060208284031215610e4f57600080fd5b600082013567ffffffffffffffff811115610e6957600080fd5b610e7584828501610d07565b91505092915050565b60008060008060808587031215610e9457600080fd5b600085015167ffffffffffffffff811115610eae57600080fd5b610eba87828801610d5b565b945050602085015167ffffffffffffffff811115610ed757600080fd5b610ee387828801610d5b565b935050604085015167ffffffffffffffff811115610f0057600080fd5b610f0c87828801610d5b565b925050606085015167ffffffffffffffff811115610f2957600080fd5b610f3587828801610c2a565b91505092959194509250565b60008060008060808587031215610f5757600080fd5b600085013567ffffffffffffffff811115610f7157600080fd5b610f7d87828801610d07565b945050602085013567ffffffffffffffff811115610f9a57600080fd5b610fa687828801610d07565b9350506040610fb787828801610dff565b925050606085013567ffffffffffffffff811115610fd457600080fd5b610fe087828801610d07565b91505092959194509250565b610ff581611436565b82525050565b611004816113e4565b82525050565b611013816113f6565b82525050565b61102281611402565b82525050565b61103181611448565b82525050565b6000611042826113c8565b61104c81856113d3565b935061105c81856020860161149f565b611065816114d2565b840191505092915050565b600061107d6020836113d3565b91507f496e73746974757465206163636f756e7420646f6573206e6f742065786973746000830152602082019050919050565b60006110bd6028836113d3565b91507f4365727469666963617465207769746820676976656e20696420616c7265616460008301527f79206578697374730000000000000000000000000000000000000000000000006020830152604082019050919050565b6000611123601d836113d3565b91507f436572746966696361746520696420646f6573206e6f742065786973740000006000830152602082019050919050565b60006111636014836113d3565b91507f496e76616c696420436f7572736520696e6465780000000000000000000000006000830152602082019050919050565b60006020820190506111ab6000830184610ffb565b92915050565b60006020820190506111c66000830184610fec565b92915050565b60006020820190506111e16000830184611019565b92915050565b60006020820190506111fc6000830184611028565b92915050565b600060e082019050818103600083015261121c818a611037565b905081810360208301526112308189611037565b905081810360408301526112448188611037565b905081810360608301526112588187611037565b9050818103608083015261126c8186611037565b905081810360a08301526112808185611037565b905061128f60c083018461100a565b98975050505050505050565b600060208201905081810360008301526112b481611070565b9050919050565b600060208201905081810360008301526112d4816110b0565b9050919050565b600060208201905081810360008301526112f481611116565b9050919050565b6000602082019050818103600083015261131481611156565b9050919050565b6000604051905081810181811067ffffffffffffffff8211171561133e57600080fd5b8060405250919050565b600067ffffffffffffffff82111561135f57600080fd5b602082029050602081019050919050565b600067ffffffffffffffff82111561138757600080fd5b601f19601f8301169050602081019050919050565b600067ffffffffffffffff8211156113b357600080fd5b601f19601f8301169050602081019050919050565b600081519050919050565b600082825260208201905092915050565b60006113ef8261140c565b9050919050565b60008115159050919050565b6000819050919050565b600073ffffffffffffffffffffffffffffffffffffffff82169050919050565b6000819050919050565b60006114418261146c565b9050919050565b60006114538261145a565b9050919050565b60006114658261140c565b9050919050565b60006114778261147e565b9050919050565b60006114898261140c565b9050919050565b82818337600083830152505050565b60005b838110156114bd5780820151818401526020810190506114a2565b838111156114cc576000848401525b50505050565b6000601f19601f8301169050919050565b6114ec816113f6565b81146114f757600080fd5b50565b6115038161142c565b811461150e57600080fd5b5056fea365627a7a7231582072c3306eebe9e007c8f7b1c81e1e7db7e08449b9dd7ff0bc2ded63c04a3380ed6c6578706572696d656e74616cf564736f6c63430005100040",
  "source": "pragma solidity ^0.5.0;\r\npragma experimental ABIEncoderV2;\r\n\r\nimport \"./Institution.sol\";\r\n\r\ncontract Certification {\r\n    // State Variables\r\n    address public owner;\r\n    Institution public institution;\r\n\r\n    // Mappings\r\n    mapping(bytes32 => Certificate) private certificates;\r\n\r\n    // Events\r\n    event certificateGenerated(bytes32 _certificateId);\r\n\r\n    constructor(Institution _institution) public {\r\n        owner = msg.sender;\r\n        institution = _institution;\r\n    }\r\n\r\n    struct Certificate {\r\n        // Individual Info\r\n        string candidate_name;\r\n        string course_name;\r\n        string creation_date;\r\n\r\n        // Institute Info\r\n        string institute_name;\r\n        string institute_acronym;\r\n        string institute_link;\r\n\r\n        // Revocation status\r\n        bool revoked;\r\n    }\r\n\r\n    function stringToBytes32(string memory source) private pure returns (bytes32 result) {\r\n        bytes memory tempEmptyStringTest = bytes(source);\r\n        if (tempEmptyStringTest.length == 0) {\r\n            return 0x0;\r\n        }\r\n        assembly {\r\n                result := mload(add(source, 32))\r\n        }\r\n    }\r\n\r\n    function generateCertificate(\r\n        string memory _id,\r\n        string memory _candidate_name,\r\n        uint256 _course_index, \r\n        string memory _creation_date) public {\r\n        require(institution.checkInstitutePermission(msg.sender) == true, \"Institute account does not exist\");\r\n        bytes32 byte_id = stringToBytes32(_id);\r\n        // require(certificates[byte_id].creation_date == 0, \"Certificate with given id already exists\");\r\n        bytes memory tempEmptyStringNameTest = bytes(\r\n            certificates[byte_id].creation_date\r\n        );\r\n        require(\r\n            tempEmptyStringNameTest.length == 0,\r\n            \"Certificate with given id already exists\"\r\n        );\r\n        (string memory _institute_name, string memory _institute_acronym, string memory _institute_link, Institution.Course[] memory _institute_courses) = institution.getInstituteData(msg.sender);\r\n        require(_course_index >= 0 && _course_index < _institute_courses.length, \"Invalid Course index\");\r\n        string memory _course_name = _institute_courses[_course_index].course_name;\r\n        bool revocation_status = false;\r\n        certificates[byte_id] = Certificate(_candidate_name, _course_name, _creation_date, _institute_name, _institute_acronym, _institute_link, revocation_status);\r\n        emit certificateGenerated(byte_id);\r\n    }\r\n\r\n    function getData(string memory _id) public view returns(string memory, string memory, string memory, string memory, string memory, string memory, bool) {\r\n        bytes32 byte_id = stringToBytes32(_id);\r\n        Certificate memory temp = certificates[byte_id];\r\n        // require(certificates[byte_id].creation_date != 0, \"Certificate id does not exist!\");\r\n        bytes memory tempEmptyStringNameTest = bytes(\r\n            certificates[byte_id].creation_date\r\n        );\r\n        require(\r\n            tempEmptyStringNameTest.length != 0,\r\n            \"Certificate id does not exist\"\r\n        );\r\n        return (temp.candidate_name, temp.course_name, temp.creation_date, temp.institute_name, temp.institute_acronym, temp.institute_link, temp.revoked);\r\n    }\r\n}",
  "sourcePath": "C:\\Tharun_work\\Term_8\\Blockchain\\project\\satoshi-chain\\contracts\\Certification.sol",
  "compiler": {
    "name": "solc",
    "version": "0.5.16+commit.9c3226ce.Emscripten.clang"
  },
  "schemaVersion": "3.4.2",
  "updatedAt": "2021-08-11T10:11:11.093Z",
  "networkType": "ethereum",
  "devdoc": {
    "methods": {}
  },
  "userdoc": {
    "methods": {}
  }
}