{
  "contractName": "Certification",
  "abi": [
    {
      "inputs": [
        {
          "internalType": "contract Institution",
          "name": "_institution",
          "type": "address"
        }
      ],
      "payable": false,
      "stateMutability": "nonpayable",
      "type": "constructor"
    },
    {
      "anonymous": false,
      "inputs": [
        {
          "indexed": false,
          "internalType": "bytes32",
          "name": "_certificateId",
          "type": "bytes32"
        }
      ],
      "name": "certificateGenerated",
      "type": "event"
    },
    {
      "constant": true,
      "inputs": [],
      "name": "institution",
      "outputs": [
        {
          "internalType": "contract Institution",
          "name": "",
          "type": "address"
        }
      ],
      "payable": false,
      "stateMutability": "view",
      "type": "function"
    },
    {
      "constant": true,
      "inputs": [],
      "name": "owner",
      "outputs": [
        {
          "internalType": "address",
          "name": "",
          "type": "address"
        }
      ],
      "payable": false,
      "stateMutability": "view",
      "type": "function"
    },
    {
      "constant": false,
      "inputs": [
        {
          "internalType": "string",
          "name": "_id",
          "type": "string"
        },
        {
          "internalType": "string",
          "name": "_candidate_name",
          "type": "string"
        },
        {
          "internalType": "string",
          "name": "_course_name",
          "type": "string"
        },
        {
          "internalType": "uint256",
          "name": "_expiration_date",
          "type": "uint256"
        }
      ],
      "name": "generateCertificate",
      "outputs": [],
      "payable": false,
      "stateMutability": "nonpayable",
      "type": "function"
    },
    {
      "constant": true,
      "inputs": [
        {
          "internalType": "string",
          "name": "_id",
          "type": "string"
        }
      ],
      "name": "getData",
      "outputs": [
        {
          "internalType": "string",
          "name": "",
          "type": "string"
        },
        {
          "internalType": "string",
          "name": "",
          "type": "string"
        },
        {
          "internalType": "uint256",
          "name": "",
          "type": "uint256"
        },
        {
          "internalType": "string",
          "name": "",
          "type": "string"
        },
        {
          "internalType": "string",
          "name": "",
          "type": "string"
        },
        {
          "internalType": "string",
          "name": "",
          "type": "string"
        }
      ],
      "payable": false,
      "stateMutability": "view",
      "type": "function"
    }
  ],
  "bytecode": "0x60806040523480156200001157600080fd5b506040516200138c3803806200138c8339818101604052620000379190810190620000d6565b336000806101000a81548173ffffffffffffffffffffffffffffffffffffffff021916908373ffffffffffffffffffffffffffffffffffffffff16021790555080600160006101000a81548173ffffffffffffffffffffffffffffffffffffffff021916908373ffffffffffffffffffffffffffffffffffffffff1602179055505062000164565b600081519050620000d0816200014a565b92915050565b600060208284031215620000e957600080fd5b6000620000f984828501620000bf565b91505092915050565b60006200010f826200012a565b9050919050565b6000620001238262000102565b9050919050565b600073ffffffffffffffffffffffffffffffffffffffff82169050919050565b620001558162000116565b81146200016157600080fd5b50565b61121880620001746000396000f3fe608060405234801561001057600080fd5b506004361061004c5760003560e01c806354b6a039146100515780638da5cb5b1461006d578063ae55c8881461008b578063d1384eb6146100c0575b600080fd5b61006b60048036036100669190810190610c7a565b6100de565b005b610075610413565b6040516100829190610e8f565b60405180910390f35b6100a560048036036100a09190810190610b76565b610438565b6040516100b796959493929190610efb565b60405180910390f35b6100c8610837565b6040516100d59190610ee0565b60405180910390f35b60011515600160009054906101000a900473ffffffffffffffffffffffffffffffffffffffff1673ffffffffffffffffffffffffffffffffffffffff1663b350ce3c336040518263ffffffff1660e01b815260040161013d9190610eaa565b60206040518083038186803b15801561015557600080fd5b505afa158015610169573d6000803e3d6000fd5b505050506040513d601f19601f8201168201806040525061018d9190810190610b4d565b1515146101cf576040517f08c379a00000000000000000000000000000000000000000000000000000000081526004016101c690610f9f565b60405180910390fd5b60006101da8561085d565b90506000600260008381526020019081526020016000206002015414610235576040517f08c379a000000000000000000000000000000000000000000000000000000000815260040161022c90610fbf565b60405180910390fd5b606080606080600160009054906101000a900473ffffffffffffffffffffffffffffffffffffffff1673ffffffffffffffffffffffffffffffffffffffff16637c0edcdf336040518263ffffffff1660e01b81526004016102969190610eaa565b60006040518083038186803b1580156102ae57600080fd5b505afa1580156102c2573d6000803e3d6000fd5b505050506040513d6000823e3d601f19601f820116820180604052506102eb9190810190610bb7565b93509350935093506040518060c001604052808981526020018881526020018781526020018581526020018481526020018381525060026000878152602001908152602001600020600082015181600001908051906020019061034f929190610888565b50602082015181600101908051906020019061036c929190610888565b50604082015181600201556060820151816003019080519060200190610393929190610888565b5060808201518160040190805190602001906103b0929190610888565b5060a08201518160050190805190602001906103cd929190610888565b509050507ff54e0f0055ffae318a21890316ed523f8a60aa59aaa279dfdcae7176155ec0db856040516104009190610ec5565b60405180910390a1505050505050505050565b6000809054906101000a900473ffffffffffffffffffffffffffffffffffffffff1681565b60608060006060806060600061044d8861085d565b9050610457610908565b600260008381526020019081526020016000206040518060c0016040529081600082018054600181600116156101000203166002900480601f01602080910402602001604051908101604052809291908181526020018280546001816001161561010002031660029004801561050e5780601f106104e35761010080835404028352916020019161050e565b820191906000526020600020905b8154815290600101906020018083116104f157829003601f168201915b50505050508152602001600182018054600181600116156101000203166002900480601f0160208091040260200160405190810160405280929190818152602001828054600181600116156101000203166002900480156105b05780601f10610585576101008083540402835291602001916105b0565b820191906000526020600020905b81548152906001019060200180831161059357829003601f168201915b5050505050815260200160028201548152602001600382018054600181600116156101000203166002900480601f01602080910402602001604051908101604052809291908181526020018280546001816001161561010002031660029004801561065c5780601f106106315761010080835404028352916020019161065c565b820191906000526020600020905b81548152906001019060200180831161063f57829003601f168201915b50505050508152602001600482018054600181600116156101000203166002900480601f0160208091040260200160405190810160405280929190818152602001828054600181600116156101000203166002900480156106fe5780601f106106d3576101008083540402835291602001916106fe565b820191906000526020600020905b8154815290600101906020018083116106e157829003601f168201915b50505050508152602001600582018054600181600116156101000203166002900480601f0160208091040260200160405190810160405280929190818152602001828054600181600116156101000203166002900480156107a05780601f10610775576101008083540402835291602001916107a0565b820191906000526020600020905b81548152906001019060200180831161078357829003601f168201915b50505050508152505090506000816040015114156107f3576040517f08c379a00000000000000000000000000000000000000000000000000000000081526004016107ea90610f7f565b60405180910390fd5b806000015181602001518260400151836060015184608001518560a00151859550849450829250819150809050975097509750975097509750505091939550919395565b600160009054906101000a900473ffffffffffffffffffffffffffffffffffffffff1681565b6000606082905060008151141561087a576000801b915050610883565b60208301519150505b919050565b828054600181600116156101000203166002900490600052602060002090601f016020900481019282601f106108c957805160ff19168380011785556108f7565b828001600101855582156108f7579182015b828111156108f65782518255916020019190600101906108db565b5b509050610904919061093e565b5090565b6040518060c001604052806060815260200160608152602001600081526020016060815260200160608152602001606081525090565b61096091905b8082111561095c576000816000905550600101610944565b5090565b90565b600082601f83011261097457600080fd5b81516109876109828261100c565b610fdf565b9150818183526020840193506020810190508360005b838110156109cd57815186016109b38882610ae8565b84526020840193506020830192505060018101905061099d565b5050505092915050565b6000815190506109e6816111a7565b92915050565b600082601f8301126109fd57600080fd5b8151610a10610a0b82611034565b610fdf565b91508082526020830160208301858383011115610a2c57600080fd5b610a37838284611163565b50505092915050565b600082601f830112610a5157600080fd5b8135610a64610a5f82611060565b610fdf565b91508082526020830160208301858383011115610a8057600080fd5b610a8b838284611154565b50505092915050565b600082601f830112610aa557600080fd5b8151610ab8610ab382611060565b610fdf565b91508082526020830160208301858383011115610ad457600080fd5b610adf838284611163565b50505092915050565b600060208284031215610afa57600080fd5b610b046020610fdf565b9050600082015167ffffffffffffffff811115610b2057600080fd5b610b2c848285016109ec565b60008301525092915050565b600081359050610b47816111be565b92915050565b600060208284031215610b5f57600080fd5b6000610b6d848285016109d7565b91505092915050565b600060208284031215610b8857600080fd5b600082013567ffffffffffffffff811115610ba257600080fd5b610bae84828501610a40565b91505092915050565b60008060008060808587031215610bcd57600080fd5b600085015167ffffffffffffffff811115610be757600080fd5b610bf387828801610a94565b945050602085015167ffffffffffffffff811115610c1057600080fd5b610c1c87828801610a94565b935050604085015167ffffffffffffffff811115610c3957600080fd5b610c4587828801610a94565b925050606085015167ffffffffffffffff811115610c6257600080fd5b610c6e87828801610963565b91505092959194509250565b60008060008060808587031215610c9057600080fd5b600085013567ffffffffffffffff811115610caa57600080fd5b610cb687828801610a40565b945050602085013567ffffffffffffffff811115610cd357600080fd5b610cdf87828801610a40565b935050604085013567ffffffffffffffff811115610cfc57600080fd5b610d0887828801610a40565b9250506060610d1987828801610b38565b91505092959194509250565b610d2e816110fa565b82525050565b610d3d816110a8565b82525050565b610d4c816110c6565b82525050565b610d5b8161110c565b82525050565b6000610d6c8261108c565b610d768185611097565b9350610d86818560208601611163565b610d8f81611196565b840191505092915050565b6000610da7600e83611097565b91507f4e6f2064617461206578697374730000000000000000000000000000000000006000830152602082019050919050565b6000610de7601783611097565b91507f496e76616c696420696e7374697475746520746f6b656e0000000000000000006000830152602082019050919050565b6000610e27602883611097565b91507f4365727469666963617465207769746820676976656e20696420616c7265616460008301527f79206578697374730000000000000000000000000000000000000000000000006020830152604082019050919050565b610e89816110f0565b82525050565b6000602082019050610ea46000830184610d34565b92915050565b6000602082019050610ebf6000830184610d25565b92915050565b6000602082019050610eda6000830184610d43565b92915050565b6000602082019050610ef56000830184610d52565b92915050565b600060c0820190508181036000830152610f158189610d61565b90508181036020830152610f298188610d61565b9050610f386040830187610e80565b8181036060830152610f4a8186610d61565b90508181036080830152610f5e8185610d61565b905081810360a0830152610f728184610d61565b9050979650505050505050565b60006020820190508181036000830152610f9881610d9a565b9050919050565b60006020820190508181036000830152610fb881610dda565b9050919050565b60006020820190508181036000830152610fd881610e1a565b9050919050565b6000604051905081810181811067ffffffffffffffff8211171561100257600080fd5b8060405250919050565b600067ffffffffffffffff82111561102357600080fd5b602082029050602081019050919050565b600067ffffffffffffffff82111561104b57600080fd5b601f19601f8301169050602081019050919050565b600067ffffffffffffffff82111561107757600080fd5b601f19601f8301169050602081019050919050565b600081519050919050565b600082825260208201905092915050565b60006110b3826110d0565b9050919050565b60008115159050919050565b6000819050919050565b600073ffffffffffffffffffffffffffffffffffffffff82169050919050565b6000819050919050565b600061110582611130565b9050919050565b60006111178261111e565b9050919050565b6000611129826110d0565b9050919050565b600061113b82611142565b9050919050565b600061114d826110d0565b9050919050565b82818337600083830152505050565b60005b83811015611181578082015181840152602081019050611166565b83811115611190576000848401525b50505050565b6000601f19601f8301169050919050565b6111b0816110ba565b81146111bb57600080fd5b50565b6111c7816110f0565b81146111d257600080fd5b5056fea365627a7a72315820d86c83c35a2cd1a2eb26a295ab754f23ee8e5e12cc6483b3be422dfbb04960036c6578706572696d656e74616cf564736f6c63430005100040",
  "source": "pragma solidity >=0.4.24;\r\npragma experimental ABIEncoderV2;\r\n\r\nimport \"./Institution.sol\";\r\n\r\ncontract Certification {\r\n    // State Variables\r\n    address public owner;\r\n    Institution public institution;\r\n\r\n    // Mappings\r\n    mapping(bytes32 => Certificate) private certificates;\r\n\r\n    // Events\r\n    event certificateGenerated(bytes32 _certificateId);\r\n\r\n    constructor(Institution _institution) public {\r\n        owner = msg.sender;\r\n        institution = _institution;\r\n    }\r\n\r\n    struct Certificate {\r\n        // Individual Info\r\n        string candidate_name;\r\n        string course_name;\r\n        uint256 expiration_date;\r\n\r\n        // Institute Info\r\n        string institute_name;\r\n        string institute_acronym;\r\n        string institute_link;\r\n    }\r\n\r\n    function stringToBytes32(string memory source) private pure returns (bytes32 result) {\r\n        bytes memory tempEmptyStringTest = bytes(source);\r\n        if (tempEmptyStringTest.length == 0) {\r\n            return 0x0;\r\n        }\r\n        assembly {\r\n                result := mload(add(source, 32))\r\n        }\r\n    }\r\n\r\n    function generateCertificate(\r\n        string memory _id,\r\n        string memory _candidate_name,\r\n        string memory _course_name, \r\n        uint256 _expiration_date) public {\r\n        require(institution.checkInstitutePermission(msg.sender) == true, \"Invalid institute token\");\r\n        bytes32 byte_id = stringToBytes32(_id);\r\n        require(certificates[byte_id].expiration_date == 0, \"Certificate with given id already exists\");\r\n        (string memory _institute_name, string memory _institute_acronym, string memory _institute_link, Institution.Course[] memory _) = institution.getInstituteData(msg.sender);\r\n        certificates[byte_id] = Certificate(_candidate_name, _course_name, _expiration_date, _institute_name, _institute_acronym, _institute_link);\r\n        emit certificateGenerated(byte_id); // TODO: Maybe can change to return _id instead of byte_id for readability\r\n    }\r\n\r\n    function getData(string memory _id) public view returns(string memory, string memory, uint256, string memory, string memory, string memory) {\r\n        bytes32 byte_id = stringToBytes32(_id);\r\n        Certificate memory temp = certificates[byte_id];\r\n        require(temp.expiration_date != 0, \"No data exists\");\r\n        return (temp.candidate_name, temp.course_name, temp.expiration_date, temp.institute_name, temp.institute_acronym, temp.institute_link);\r\n    }\r\n}",
  "sourcePath": "C:\\Users\\daryl\\Desktop\\SUTD school materials\\T8-BlockchainTechnology\\Project\\satoshi-certs\\contracts\\Certification.sol",
  "compiler": {
    "name": "solc",
    "version": "0.5.16+commit.9c3226ce.Emscripten.clang"
  },
  "schemaVersion": "3.4.2",
  "updatedAt": "2021-08-09T19:39:26.435Z",
  "networkType": "ethereum",
  "devdoc": {
    "methods": {}
  },
  "userdoc": {
    "methods": {}
  }
}