{
  "contractName": "Certification",
  "abi": [
    {
      "inputs": [
        {
          "internalType": "contract Institution",
          "name": "_institution",
          "type": "address"
        }
      ],
      "payable": false,
      "stateMutability": "nonpayable",
      "type": "constructor"
    },
    {
      "anonymous": false,
      "inputs": [
        {
          "indexed": false,
          "internalType": "bytes32",
          "name": "_certificateId",
          "type": "bytes32"
        }
      ],
      "name": "certificateGenerated",
      "type": "event"
    },
    {
      "constant": true,
      "inputs": [],
      "name": "institution",
      "outputs": [
        {
          "internalType": "contract Institution",
          "name": "",
          "type": "address"
        }
      ],
      "payable": false,
      "stateMutability": "view",
      "type": "function"
    },
    {
      "constant": true,
      "inputs": [],
      "name": "owner",
      "outputs": [
        {
          "internalType": "address",
          "name": "",
          "type": "address"
        }
      ],
      "payable": false,
      "stateMutability": "view",
      "type": "function"
    },
    {
      "constant": false,
      "inputs": [
        {
          "internalType": "string",
          "name": "_token",
          "type": "string"
        },
        {
          "internalType": "string",
          "name": "_id",
          "type": "string"
        },
        {
          "internalType": "string",
          "name": "_candidate_name",
          "type": "string"
        },
        {
          "internalType": "string",
          "name": "_org_name",
          "type": "string"
        },
        {
          "internalType": "string",
          "name": "_course_name",
          "type": "string"
        },
        {
          "internalType": "uint256",
          "name": "_expiration_date",
          "type": "uint256"
        }
      ],
      "name": "generateCertificate",
      "outputs": [],
      "payable": false,
      "stateMutability": "nonpayable",
      "type": "function"
    },
    {
      "constant": true,
      "inputs": [
        {
          "internalType": "string",
          "name": "_id",
          "type": "string"
        }
      ],
      "name": "getData",
      "outputs": [
        {
          "internalType": "string",
          "name": "",
          "type": "string"
        },
        {
          "internalType": "string",
          "name": "",
          "type": "string"
        },
        {
          "internalType": "string",
          "name": "",
          "type": "string"
        },
        {
          "internalType": "uint256",
          "name": "",
          "type": "uint256"
        },
        {
          "internalType": "string",
          "name": "",
          "type": "string"
        },
        {
          "internalType": "string",
          "name": "",
          "type": "string"
        },
        {
          "internalType": "string",
          "name": "",
          "type": "string"
        }
      ],
      "payable": false,
      "stateMutability": "view",
      "type": "function"
    }
  ],
  "bytecode": "0x60806040523480156200001157600080fd5b5060405162001496380380620014968339818101604052620000379190810190620000d6565b336000806101000a81548173ffffffffffffffffffffffffffffffffffffffff021916908373ffffffffffffffffffffffffffffffffffffffff16021790555080600160006101000a81548173ffffffffffffffffffffffffffffffffffffffff021916908373ffffffffffffffffffffffffffffffffffffffff1602179055505062000164565b600081519050620000d0816200014a565b92915050565b600060208284031215620000e957600080fd5b6000620000f984828501620000bf565b91505092915050565b60006200010f826200012a565b9050919050565b6000620001238262000102565b9050919050565b600073ffffffffffffffffffffffffffffffffffffffff82169050919050565b620001558162000116565b81146200016157600080fd5b50565b61132280620001746000396000f3fe608060405234801561001057600080fd5b506004361061004c5760003560e01c80638da5cb5b1461005157806395b76f681461006f578063ae55c8881461008b578063d1384eb6146100c1575b600080fd5b6100596100df565b6040516100669190610fb3565b60405180910390f35b61008960048036036100849190810190610d57565b610104565b005b6100a560048036036100a09190810190610c53565b61045e565b6040516100b89796959493929190611026565b60405180910390f35b6100c961090d565b6040516100d69190610fe9565b60405180910390f35b6000809054906101000a900473ffffffffffffffffffffffffffffffffffffffff1681565b60011515600160009054906101000a900473ffffffffffffffffffffffffffffffffffffffff1673ffffffffffffffffffffffffffffffffffffffff166348c52f49886040518263ffffffff1660e01b81526004016101639190611004565b60206040518083038186803b15801561017b57600080fd5b505afa15801561018f573d6000803e3d6000fd5b505050506040513d601f19601f820116820180604052506101b39190810190610c2a565b1515146101f5576040517f08c379a00000000000000000000000000000000000000000000000000000000081526004016101ec906110df565b60405180910390fd5b600061020086610933565b9050600060026000838152602001908152602001600020600301541461025b576040517f08c379a0000000000000000000000000000000000000000000000000000000008152600401610252906110ff565b60405180910390fd5b606080606080600160009054906101000a900473ffffffffffffffffffffffffffffffffffffffff1673ffffffffffffffffffffffffffffffffffffffff16634506151c8c6040518263ffffffff1660e01b81526004016102bc9190611004565b60006040518083038186803b1580156102d457600080fd5b505afa1580156102e8573d6000803e3d6000fd5b505050506040513d6000823e3d601f19601f820116820180604052506103119190810190610c94565b93509350935093506040518060e001604052808a81526020018981526020018881526020018781526020018581526020018481526020018381525060026000878152602001908152602001600020600082015181600001908051906020019061037b92919061095e565b50602082015181600101908051906020019061039892919061095e565b5060408201518160020190805190602001906103b592919061095e565b506060820151816003015560808201518160040190805190602001906103dc92919061095e565b5060a08201518160050190805190602001906103f992919061095e565b5060c082015181600601908051906020019061041692919061095e565b509050507ff54e0f0055ffae318a21890316ed523f8a60aa59aaa279dfdcae7176155ec0db856040516104499190610fce565b60405180910390a15050505050505050505050565b606080606060006060806060600061047589610933565b905061047f6109de565b600260008381526020019081526020016000206040518060e0016040529081600082018054600181600116156101000203166002900480601f0160208091040260200160405190810160405280929190818152602001828054600181600116156101000203166002900480156105365780601f1061050b57610100808354040283529160200191610536565b820191906000526020600020905b81548152906001019060200180831161051957829003601f168201915b50505050508152602001600182018054600181600116156101000203166002900480601f0160208091040260200160405190810160405280929190818152602001828054600181600116156101000203166002900480156105d85780601f106105ad576101008083540402835291602001916105d8565b820191906000526020600020905b8154815290600101906020018083116105bb57829003601f168201915b50505050508152602001600282018054600181600116156101000203166002900480601f01602080910402602001604051908101604052809291908181526020018280546001816001161561010002031660029004801561067a5780601f1061064f5761010080835404028352916020019161067a565b820191906000526020600020905b81548152906001019060200180831161065d57829003601f168201915b5050505050815260200160038201548152602001600482018054600181600116156101000203166002900480601f0160208091040260200160405190810160405280929190818152602001828054600181600116156101000203166002900480156107265780601f106106fb57610100808354040283529160200191610726565b820191906000526020600020905b81548152906001019060200180831161070957829003601f168201915b50505050508152602001600582018054600181600116156101000203166002900480601f0160208091040260200160405190810160405280929190818152602001828054600181600116156101000203166002900480156107c85780601f1061079d576101008083540402835291602001916107c8565b820191906000526020600020905b8154815290600101906020018083116107ab57829003601f168201915b50505050508152602001600682018054600181600116156101000203166002900480601f01602080910402602001604051908101604052809291908181526020018280546001816001161561010002031660029004801561086a5780601f1061083f5761010080835404028352916020019161086a565b820191906000526020600020905b81548152906001019060200180831161084d57829003601f168201915b50505050508152505090506000816060015114156108bd576040517f08c379a00000000000000000000000000000000000000000000000000000000081526004016108b4906110bf565b60405180910390fd5b806000015181602001518260400151836060015184608001518560a001518660c0015186965085955084945082925081915080905098509850985098509850985098505050919395979092949650565b600160009054906101000a900473ffffffffffffffffffffffffffffffffffffffff1681565b60006060829050600081511415610950576000801b915050610959565b60208301519150505b919050565b828054600181600116156101000203166002900490600052602060002090601f016020900481019282601f1061099f57805160ff19168380011785556109cd565b828001600101855582156109cd579182015b828111156109cc5782518255916020019190600101906109b1565b5b5090506109da9190610a1b565b5090565b6040518060e00160405280606081526020016060815260200160608152602001600081526020016060815260200160608152602001606081525090565b610a3d91905b80821115610a39576000816000905550600101610a21565b5090565b90565b600082601f830112610a5157600080fd5b8151610a64610a5f8261114c565b61111f565b9150818183526020840193506020810190508360005b83811015610aaa5781518601610a908882610bc5565b845260208401935060208301925050600181019050610a7a565b5050505092915050565b600081519050610ac3816112b1565b92915050565b600082601f830112610ada57600080fd5b8151610aed610ae882611174565b61111f565b91508082526020830160208301858383011115610b0957600080fd5b610b1483828461126d565b50505092915050565b600082601f830112610b2e57600080fd5b8135610b41610b3c826111a0565b61111f565b91508082526020830160208301858383011115610b5d57600080fd5b610b6883828461125e565b50505092915050565b600082601f830112610b8257600080fd5b8151610b95610b90826111a0565b61111f565b91508082526020830160208301858383011115610bb157600080fd5b610bbc83828461126d565b50505092915050565b600060208284031215610bd757600080fd5b610be1602061111f565b9050600082015167ffffffffffffffff811115610bfd57600080fd5b610c0984828501610ac9565b60008301525092915050565b600081359050610c24816112c8565b92915050565b600060208284031215610c3c57600080fd5b6000610c4a84828501610ab4565b91505092915050565b600060208284031215610c6557600080fd5b600082013567ffffffffffffffff811115610c7f57600080fd5b610c8b84828501610b1d565b91505092915050565b60008060008060808587031215610caa57600080fd5b600085015167ffffffffffffffff811115610cc457600080fd5b610cd087828801610b71565b945050602085015167ffffffffffffffff811115610ced57600080fd5b610cf987828801610b71565b935050604085015167ffffffffffffffff811115610d1657600080fd5b610d2287828801610b71565b925050606085015167ffffffffffffffff811115610d3f57600080fd5b610d4b87828801610a40565b91505092959194509250565b60008060008060008060c08789031215610d7057600080fd5b600087013567ffffffffffffffff811115610d8a57600080fd5b610d9689828a01610b1d565b965050602087013567ffffffffffffffff811115610db357600080fd5b610dbf89828a01610b1d565b955050604087013567ffffffffffffffff811115610ddc57600080fd5b610de889828a01610b1d565b945050606087013567ffffffffffffffff811115610e0557600080fd5b610e1189828a01610b1d565b935050608087013567ffffffffffffffff811115610e2e57600080fd5b610e3a89828a01610b1d565b92505060a0610e4b89828a01610c15565b9150509295509295509295565b610e61816111e8565b82525050565b610e7081611206565b82525050565b610e7f8161123a565b82525050565b6000610e90826111cc565b610e9a81856111d7565b9350610eaa81856020860161126d565b610eb3816112a0565b840191505092915050565b6000610ecb600e836111d7565b91507f4e6f2064617461206578697374730000000000000000000000000000000000006000830152602082019050919050565b6000610f0b6017836111d7565b91507f496e76616c696420696e7374697475746520746f6b656e0000000000000000006000830152602082019050919050565b6000610f4b6028836111d7565b91507f4365727469666963617465207769746820676976656e20696420616c7265616460008301527f79206578697374730000000000000000000000000000000000000000000000006020830152604082019050919050565b610fad81611230565b82525050565b6000602082019050610fc86000830184610e58565b92915050565b6000602082019050610fe36000830184610e67565b92915050565b6000602082019050610ffe6000830184610e76565b92915050565b6000602082019050818103600083015261101e8184610e85565b905092915050565b600060e0820190508181036000830152611040818a610e85565b905081810360208301526110548189610e85565b905081810360408301526110688188610e85565b90506110776060830187610fa4565b81810360808301526110898186610e85565b905081810360a083015261109d8185610e85565b905081810360c08301526110b18184610e85565b905098975050505050505050565b600060208201905081810360008301526110d881610ebe565b9050919050565b600060208201905081810360008301526110f881610efe565b9050919050565b6000602082019050818103600083015261111881610f3e565b9050919050565b6000604051905081810181811067ffffffffffffffff8211171561114257600080fd5b8060405250919050565b600067ffffffffffffffff82111561116357600080fd5b602082029050602081019050919050565b600067ffffffffffffffff82111561118b57600080fd5b601f19601f8301169050602081019050919050565b600067ffffffffffffffff8211156111b757600080fd5b601f19601f8301169050602081019050919050565b600081519050919050565b600082825260208201905092915050565b60006111f382611210565b9050919050565b60008115159050919050565b6000819050919050565b600073ffffffffffffffffffffffffffffffffffffffff82169050919050565b6000819050919050565b60006112458261124c565b9050919050565b600061125782611210565b9050919050565b82818337600083830152505050565b60005b8381101561128b578082015181840152602081019050611270565b8381111561129a576000848401525b50505050565b6000601f19601f8301169050919050565b6112ba816111fa565b81146112c557600080fd5b50565b6112d181611230565b81146112dc57600080fd5b5056fea365627a7a72315820858e7c991b5e06d6b17023b1bed464db50c10b27c710c7b9aea8e08979d6a3d76c6578706572696d656e74616cf564736f6c63430005100040",
  "source": "pragma solidity >=0.4.24;\r\npragma experimental ABIEncoderV2;\r\n\r\nimport \"./Institution.sol\";\r\n\r\ncontract Certification {\r\n    // State Variables\r\n    address public owner;\r\n    Institution public institution;\r\n\r\n    // Mappings\r\n    mapping(bytes32 => Certificate) private certificates;\r\n\r\n    // Events\r\n    event certificateGenerated(bytes32 _certificateId);\r\n\r\n    constructor(Institution _institution) public {\r\n        owner = msg.sender;\r\n        institution = _institution;\r\n    }\r\n\r\n    struct Certificate {\r\n        // Individual Info\r\n        string candidate_name;\r\n        string org_name;\r\n        string course_name;\r\n        uint256 expiration_date;\r\n\r\n        // Institute Info\r\n        string institute_name;\r\n        string institute_acronym;\r\n        string institute_link;\r\n    }\r\n\r\n    function stringToBytes32(string memory source) private pure returns (bytes32 result) {\r\n        bytes memory tempEmptyStringTest = bytes(source);\r\n        if (tempEmptyStringTest.length == 0) {\r\n            return 0x0;\r\n        }\r\n        assembly {\r\n                result := mload(add(source, 32))\r\n        }\r\n    }\r\n\r\n    function generateCertificate(\r\n        string memory _token,\r\n        string memory _id,\r\n        string memory _candidate_name,\r\n        string memory _org_name, \r\n        string memory _course_name, \r\n        uint256 _expiration_date) public {\r\n        require(institution.checkInstitutePermission(_token) == true, \"Invalid institute token\");\r\n        bytes32 byte_id = stringToBytes32(_id);\r\n        require(certificates[byte_id].expiration_date == 0, \"Certificate with given id already exists\");\r\n        (string memory _institute_name, string memory _institute_acronym, string memory _institute_link, Institution.Course[] memory _) = institution.getInstituteData(_token);\r\n        certificates[byte_id] = Certificate(_candidate_name, _org_name, _course_name, _expiration_date, _institute_name, _institute_acronym, _institute_link);\r\n        emit certificateGenerated(byte_id); // TODO: Maybe can change to return _id instead of byte_id for readability\r\n    }\r\n\r\n    function getData(string memory _id) public view returns(string memory, string memory, string memory, uint256, string memory, string memory, string memory) {\r\n        bytes32 byte_id = stringToBytes32(_id);\r\n        Certificate memory temp = certificates[byte_id];\r\n        require(temp.expiration_date != 0, \"No data exists\");\r\n        // string memory, string memory, string memory, Course[] memory\r\n        // temp.institute_name, temp.institute_acronym, temp.institute_link, instituteCourses[byte_id]);\r\n        return (temp.candidate_name, temp.org_name, temp.course_name, temp.expiration_date, temp.institute_name, temp.institute_acronym, temp.institute_link);\r\n    }\r\n}",
  "sourcePath": "C:\\Users\\daryl\\Desktop\\SUTD school materials\\T8-BlockchainTechnology\\Project\\satoshi-certs\\contracts\\Certification.sol",
  "compiler": {
    "name": "solc",
    "version": "0.5.16+commit.9c3226ce.Emscripten.clang"
  },
  "schemaVersion": "3.4.2",
  "updatedAt": "2021-08-08T18:13:01.353Z",
  "networkType": "ethereum",
  "devdoc": {
    "methods": {}
  },
  "userdoc": {
    "methods": {}
  }
}