{
  "contractName": "Certification",
  "abi": [
    {
      "inputs": [
        {
          "internalType": "contract Institution",
          "name": "_institution",
          "type": "address"
        }
      ],
      "payable": false,
      "stateMutability": "nonpayable",
      "type": "constructor"
    },
    {
      "anonymous": false,
      "inputs": [
        {
          "indexed": false,
          "internalType": "bytes32",
          "name": "_certificateId",
          "type": "bytes32"
        }
      ],
      "name": "certificateGenerated",
      "type": "event"
    },
    {
      "constant": true,
      "inputs": [],
      "name": "institution",
      "outputs": [
        {
          "internalType": "contract Institution",
          "name": "",
          "type": "address"
        }
      ],
      "payable": false,
      "stateMutability": "view",
      "type": "function"
    },
    {
      "constant": true,
      "inputs": [],
      "name": "owner",
      "outputs": [
        {
          "internalType": "address",
          "name": "",
          "type": "address"
        }
      ],
      "payable": false,
      "stateMutability": "view",
      "type": "function"
    },
    {
      "constant": false,
      "inputs": [
        {
          "internalType": "string",
          "name": "_id",
          "type": "string"
        },
        {
          "internalType": "string",
          "name": "_candidate_name",
          "type": "string"
        },
        {
          "internalType": "string",
          "name": "_org_name",
          "type": "string"
        },
        {
          "internalType": "string",
          "name": "_course_name",
          "type": "string"
        },
        {
          "internalType": "uint256",
          "name": "_expiration_date",
          "type": "uint256"
        }
      ],
      "name": "generateCertificate",
      "outputs": [],
      "payable": false,
      "stateMutability": "nonpayable",
      "type": "function"
    },
    {
      "constant": true,
      "inputs": [
        {
          "internalType": "string",
          "name": "_id",
          "type": "string"
        }
      ],
      "name": "getData",
      "outputs": [
        {
          "internalType": "string",
          "name": "",
          "type": "string"
        },
        {
          "internalType": "string",
          "name": "",
          "type": "string"
        },
        {
          "internalType": "string",
          "name": "",
          "type": "string"
        },
        {
          "internalType": "uint256",
          "name": "",
          "type": "uint256"
        },
        {
          "internalType": "string",
          "name": "",
          "type": "string"
        },
        {
          "internalType": "string",
          "name": "",
          "type": "string"
        },
        {
          "internalType": "string",
          "name": "",
          "type": "string"
        }
      ],
      "payable": false,
      "stateMutability": "view",
      "type": "function"
    }
  ],
  "bytecode": "0x60806040523480156200001157600080fd5b50604051620014a9380380620014a98339818101604052620000379190810190620000d6565b336000806101000a81548173ffffffffffffffffffffffffffffffffffffffff021916908373ffffffffffffffffffffffffffffffffffffffff16021790555080600160006101000a81548173ffffffffffffffffffffffffffffffffffffffff021916908373ffffffffffffffffffffffffffffffffffffffff1602179055505062000164565b600081519050620000d0816200014a565b92915050565b600060208284031215620000e957600080fd5b6000620000f984828501620000bf565b91505092915050565b60006200010f826200012a565b9050919050565b6000620001238262000102565b9050919050565b600073ffffffffffffffffffffffffffffffffffffffff82169050919050565b620001558162000116565b81146200016157600080fd5b50565b61133580620001746000396000f3fe608060405234801561001057600080fd5b506004361061004c5760003560e01c80638da5cb5b14610051578063ae55c8881461006f578063bc12f6eb146100a5578063d1384eb6146100c1575b600080fd5b6100596100df565b6040516100669190610f97565b60405180910390f35b61008960048036036100849190810190610c52565b610104565b60405161009c9796959493929190611003565b60405180910390f35b6100bf60048036036100ba9190810190610d56565b6105b3565b005b6100c961090c565b6040516100d69190610fe8565b60405180910390f35b6000809054906101000a900473ffffffffffffffffffffffffffffffffffffffff1681565b606080606060006060806060600061011b89610932565b905061012561095d565b600260008381526020019081526020016000206040518060e0016040529081600082018054600181600116156101000203166002900480601f0160208091040260200160405190810160405280929190818152602001828054600181600116156101000203166002900480156101dc5780601f106101b1576101008083540402835291602001916101dc565b820191906000526020600020905b8154815290600101906020018083116101bf57829003601f168201915b50505050508152602001600182018054600181600116156101000203166002900480601f01602080910402602001604051908101604052809291908181526020018280546001816001161561010002031660029004801561027e5780601f106102535761010080835404028352916020019161027e565b820191906000526020600020905b81548152906001019060200180831161026157829003601f168201915b50505050508152602001600282018054600181600116156101000203166002900480601f0160208091040260200160405190810160405280929190818152602001828054600181600116156101000203166002900480156103205780601f106102f557610100808354040283529160200191610320565b820191906000526020600020905b81548152906001019060200180831161030357829003601f168201915b5050505050815260200160038201548152602001600482018054600181600116156101000203166002900480601f0160208091040260200160405190810160405280929190818152602001828054600181600116156101000203166002900480156103cc5780601f106103a1576101008083540402835291602001916103cc565b820191906000526020600020905b8154815290600101906020018083116103af57829003601f168201915b50505050508152602001600582018054600181600116156101000203166002900480601f01602080910402602001604051908101604052809291908181526020018280546001816001161561010002031660029004801561046e5780601f106104435761010080835404028352916020019161046e565b820191906000526020600020905b81548152906001019060200180831161045157829003601f168201915b50505050508152602001600682018054600181600116156101000203166002900480601f0160208091040260200160405190810160405280929190818152602001828054600181600116156101000203166002900480156105105780601f106104e557610100808354040283529160200191610510565b820191906000526020600020905b8154815290600101906020018083116104f357829003601f168201915b5050505050815250509050600081606001511415610563576040517f08c379a000000000000000000000000000000000000000000000000000000000815260040161055a9061109c565b60405180910390fd5b806000015181602001518260400151836060015184608001518560a001518660c0015186965085955084945082925081915080905098509850985098509850985098505050919395979092949650565b60011515600160009054906101000a900473ffffffffffffffffffffffffffffffffffffffff1673ffffffffffffffffffffffffffffffffffffffff1663b350ce3c336040518263ffffffff1660e01b81526004016106129190610fb2565b60206040518083038186803b15801561062a57600080fd5b505afa15801561063e573d6000803e3d6000fd5b505050506040513d601f19601f820116820180604052506106629190810190610c29565b1515146106a4576040517f08c379a000000000000000000000000000000000000000000000000000000000815260040161069b906110bc565b60405180910390fd5b60006106af86610932565b9050600060026000838152602001908152602001600020600301541461070a576040517f08c379a0000000000000000000000000000000000000000000000000000000008152600401610701906110dc565b60405180910390fd5b606080606080600160009054906101000a900473ffffffffffffffffffffffffffffffffffffffff1673ffffffffffffffffffffffffffffffffffffffff16637c0edcdf336040518263ffffffff1660e01b815260040161076b9190610fb2565b60006040518083038186803b15801561078357600080fd5b505afa158015610797573d6000803e3d6000fd5b505050506040513d6000823e3d601f19601f820116820180604052506107c09190810190610c93565b93509350935093506040518060e001604052808a81526020018981526020018881526020018781526020018581526020018481526020018381525060026000878152602001908152602001600020600082015181600001908051906020019061082a92919061099a565b50602082015181600101908051906020019061084792919061099a565b50604082015181600201908051906020019061086492919061099a565b5060608201518160030155608082015181600401908051906020019061088b92919061099a565b5060a08201518160050190805190602001906108a892919061099a565b5060c08201518160060190805190602001906108c592919061099a565b509050507ff54e0f0055ffae318a21890316ed523f8a60aa59aaa279dfdcae7176155ec0db856040516108f89190610fcd565b60405180910390a150505050505050505050565b600160009054906101000a900473ffffffffffffffffffffffffffffffffffffffff1681565b6000606082905060008151141561094f576000801b915050610958565b60208301519150505b919050565b6040518060e00160405280606081526020016060815260200160608152602001600081526020016060815260200160608152602001606081525090565b828054600181600116156101000203166002900490600052602060002090601f016020900481019282601f106109db57805160ff1916838001178555610a09565b82800160010185558215610a09579182015b82811115610a085782518255916020019190600101906109ed565b5b509050610a169190610a1a565b5090565b610a3c91905b80821115610a38576000816000905550600101610a20565b5090565b90565b600082601f830112610a5057600080fd5b8151610a63610a5e82611129565b6110fc565b9150818183526020840193506020810190508360005b83811015610aa95781518601610a8f8882610bc4565b845260208401935060208301925050600181019050610a79565b5050505092915050565b600081519050610ac2816112c4565b92915050565b600082601f830112610ad957600080fd5b8151610aec610ae782611151565b6110fc565b91508082526020830160208301858383011115610b0857600080fd5b610b13838284611280565b50505092915050565b600082601f830112610b2d57600080fd5b8135610b40610b3b8261117d565b6110fc565b91508082526020830160208301858383011115610b5c57600080fd5b610b67838284611271565b50505092915050565b600082601f830112610b8157600080fd5b8151610b94610b8f8261117d565b6110fc565b91508082526020830160208301858383011115610bb057600080fd5b610bbb838284611280565b50505092915050565b600060208284031215610bd657600080fd5b610be060206110fc565b9050600082015167ffffffffffffffff811115610bfc57600080fd5b610c0884828501610ac8565b60008301525092915050565b600081359050610c23816112db565b92915050565b600060208284031215610c3b57600080fd5b6000610c4984828501610ab3565b91505092915050565b600060208284031215610c6457600080fd5b600082013567ffffffffffffffff811115610c7e57600080fd5b610c8a84828501610b1c565b91505092915050565b60008060008060808587031215610ca957600080fd5b600085015167ffffffffffffffff811115610cc357600080fd5b610ccf87828801610b70565b945050602085015167ffffffffffffffff811115610cec57600080fd5b610cf887828801610b70565b935050604085015167ffffffffffffffff811115610d1557600080fd5b610d2187828801610b70565b925050606085015167ffffffffffffffff811115610d3e57600080fd5b610d4a87828801610a3f565b91505092959194509250565b600080600080600060a08688031215610d6e57600080fd5b600086013567ffffffffffffffff811115610d8857600080fd5b610d9488828901610b1c565b955050602086013567ffffffffffffffff811115610db157600080fd5b610dbd88828901610b1c565b945050604086013567ffffffffffffffff811115610dda57600080fd5b610de688828901610b1c565b935050606086013567ffffffffffffffff811115610e0357600080fd5b610e0f88828901610b1c565b9250506080610e2088828901610c14565b9150509295509295909350565b610e3681611217565b82525050565b610e45816111c5565b82525050565b610e54816111e3565b82525050565b610e6381611229565b82525050565b6000610e74826111a9565b610e7e81856111b4565b9350610e8e818560208601611280565b610e97816112b3565b840191505092915050565b6000610eaf600e836111b4565b91507f4e6f2064617461206578697374730000000000000000000000000000000000006000830152602082019050919050565b6000610eef6017836111b4565b91507f496e76616c696420696e7374697475746520746f6b656e0000000000000000006000830152602082019050919050565b6000610f2f6028836111b4565b91507f4365727469666963617465207769746820676976656e20696420616c7265616460008301527f79206578697374730000000000000000000000000000000000000000000000006020830152604082019050919050565b610f918161120d565b82525050565b6000602082019050610fac6000830184610e3c565b92915050565b6000602082019050610fc76000830184610e2d565b92915050565b6000602082019050610fe26000830184610e4b565b92915050565b6000602082019050610ffd6000830184610e5a565b92915050565b600060e082019050818103600083015261101d818a610e69565b905081810360208301526110318189610e69565b905081810360408301526110458188610e69565b90506110546060830187610f88565b81810360808301526110668186610e69565b905081810360a083015261107a8185610e69565b905081810360c083015261108e8184610e69565b905098975050505050505050565b600060208201905081810360008301526110b581610ea2565b9050919050565b600060208201905081810360008301526110d581610ee2565b9050919050565b600060208201905081810360008301526110f581610f22565b9050919050565b6000604051905081810181811067ffffffffffffffff8211171561111f57600080fd5b8060405250919050565b600067ffffffffffffffff82111561114057600080fd5b602082029050602081019050919050565b600067ffffffffffffffff82111561116857600080fd5b601f19601f8301169050602081019050919050565b600067ffffffffffffffff82111561119457600080fd5b601f19601f8301169050602081019050919050565b600081519050919050565b600082825260208201905092915050565b60006111d0826111ed565b9050919050565b60008115159050919050565b6000819050919050565b600073ffffffffffffffffffffffffffffffffffffffff82169050919050565b6000819050919050565b60006112228261124d565b9050919050565b60006112348261123b565b9050919050565b6000611246826111ed565b9050919050565b60006112588261125f565b9050919050565b600061126a826111ed565b9050919050565b82818337600083830152505050565b60005b8381101561129e578082015181840152602081019050611283565b838111156112ad576000848401525b50505050565b6000601f19601f8301169050919050565b6112cd816111d7565b81146112d857600080fd5b50565b6112e48161120d565b81146112ef57600080fd5b5056fea365627a7a7231582011ffe8e3fe2c7cf941264936d7e4789b19ec23dd6835dd708538ece66be6679e6c6578706572696d656e74616cf564736f6c63430005100040",
  "source": "pragma solidity ^0.5.0;\r\npragma experimental ABIEncoderV2;\r\n\r\nimport \"./Institution.sol\";\r\n\r\ncontract Certification {\r\n    // State Variables\r\n    address public owner;\r\n    Institution public institution;\r\n\r\n    // Mappings\r\n    mapping(bytes32 => Certificate) private certificates;\r\n\r\n    // Events\r\n    event certificateGenerated(bytes32 _certificateId);\r\n\r\n    constructor(Institution _institution) public {\r\n        owner = msg.sender;\r\n        institution = _institution;\r\n    }\r\n\r\n    struct Certificate {\r\n        // Individual Info\r\n        string candidate_name;\r\n        string org_name;\r\n        string course_name;\r\n        uint256 expiration_date;\r\n\r\n        // Institute Info\r\n        string institute_name;\r\n        string institute_acronym;\r\n        string institute_link;\r\n    }\r\n\r\n    function stringToBytes32(string memory source) private pure returns (bytes32 result) {\r\n        bytes memory tempEmptyStringTest = bytes(source);\r\n        if (tempEmptyStringTest.length == 0) {\r\n            return 0x0;\r\n        }\r\n        assembly {\r\n                result := mload(add(source, 32))\r\n        }\r\n    }\r\n\r\n    function generateCertificate(\r\n        string memory _id,\r\n        string memory _candidate_name,\r\n        string memory _org_name, \r\n        string memory _course_name, \r\n        uint256 _expiration_date) public {\r\n        // require(institution.checkInstitutePermission(_token) == true, \"Invalid institute token\");\r\n        require(institution.checkInstitutePermission(msg.sender) == true, \"Invalid institute token\");\r\n        bytes32 byte_id = stringToBytes32(_id);\r\n        require(certificates[byte_id].expiration_date == 0, \"Certificate with given id already exists\");\r\n        // (string memory _institute_name, string memory _institute_acronym, string memory _institute_link, Institution.Course[] memory _) = institution.getInstituteData(_token);\r\n        (string memory _institute_name, string memory _institute_acronym, string memory _institute_link, Institution.Course[] memory _) = institution.getInstituteData(msg.sender);\r\n        certificates[byte_id] = Certificate(_candidate_name, _org_name, _course_name, _expiration_date, _institute_name, _institute_acronym, _institute_link);\r\n        emit certificateGenerated(byte_id); // TODO: Maybe can change to return _id instead of byte_id for readability\r\n    }\r\n\r\n    function getData(string memory _id) public view returns(string memory, string memory, string memory, uint256, string memory, string memory, string memory) {\r\n        bytes32 byte_id = stringToBytes32(_id);\r\n        Certificate memory temp = certificates[byte_id];\r\n        require(temp.expiration_date != 0, \"No data exists\");\r\n        // string memory, string memory, string memory, Course[] memory\r\n        // temp.institute_name, temp.institute_acronym, temp.institute_link, instituteCourses[byte_id]);\r\n        return (temp.candidate_name, temp.org_name, temp.course_name, temp.expiration_date, temp.institute_name, temp.institute_acronym, temp.institute_link);\r\n    }\r\n}",
  "sourcePath": "C:\\Tharun_work\\Term_8\\Blockchain\\project\\satoshi-chain\\contracts\\Certification.sol",
  "compiler": {
    "name": "solc",
    "version": "0.5.16+commit.9c3226ce.Emscripten.clang"
  },
  "schemaVersion": "3.4.2",
  "updatedAt": "2021-08-09T16:50:34.028Z",
  "networkType": "ethereum",
  "devdoc": {
    "methods": {}
  },
  "userdoc": {
    "methods": {}
  }
}