{
  "contractName": "Certification",
  "abi": [
    {
      "inputs": [
        {
          "internalType": "contract Institution",
          "name": "_institution",
          "type": "address"
        }
      ],
      "payable": false,
      "stateMutability": "nonpayable",
      "type": "constructor"
    },
    {
      "anonymous": false,
      "inputs": [
        {
          "indexed": false,
          "internalType": "bytes32",
          "name": "_certificateId",
          "type": "bytes32"
        }
      ],
      "name": "certificateGenerated",
      "type": "event"
    },
    {
      "anonymous": false,
      "inputs": [
        {
          "indexed": false,
          "internalType": "bytes32",
          "name": "_certificateId",
          "type": "bytes32"
        }
      ],
      "name": "certificateRevoked",
      "type": "event"
    },
    {
      "constant": true,
      "inputs": [],
      "name": "institution",
      "outputs": [
        {
          "internalType": "contract Institution",
          "name": "",
          "type": "address"
        }
      ],
      "payable": false,
      "stateMutability": "view",
      "type": "function"
    },
    {
      "constant": true,
      "inputs": [],
      "name": "owner",
      "outputs": [
        {
          "internalType": "address",
          "name": "",
          "type": "address"
        }
      ],
      "payable": false,
      "stateMutability": "view",
      "type": "function"
    },
    {
      "constant": false,
      "inputs": [
        {
          "internalType": "string",
          "name": "_id",
          "type": "string"
        },
        {
          "internalType": "string",
          "name": "_candidate_name",
          "type": "string"
        },
        {
          "internalType": "uint256",
          "name": "_course_index",
          "type": "uint256"
        },
        {
          "internalType": "string",
          "name": "_creation_date",
          "type": "string"
        }
      ],
      "name": "generateCertificate",
      "outputs": [],
      "payable": false,
      "stateMutability": "nonpayable",
      "type": "function"
    },
    {
      "constant": true,
      "inputs": [
        {
          "internalType": "string",
          "name": "_id",
          "type": "string"
        }
      ],
      "name": "getData",
      "outputs": [
        {
          "internalType": "string",
          "name": "",
          "type": "string"
        },
        {
          "internalType": "string",
          "name": "",
          "type": "string"
        },
        {
          "internalType": "string",
          "name": "",
          "type": "string"
        },
        {
          "internalType": "string",
          "name": "",
          "type": "string"
        },
        {
          "internalType": "string",
          "name": "",
          "type": "string"
        },
        {
          "internalType": "string",
          "name": "",
          "type": "string"
        },
        {
          "internalType": "bool",
          "name": "",
          "type": "bool"
        }
      ],
      "payable": false,
      "stateMutability": "view",
      "type": "function"
    },
    {
      "constant": false,
      "inputs": [
        {
          "internalType": "string",
          "name": "_id",
          "type": "string"
        }
      ],
      "name": "revokeCertificate",
      "outputs": [],
      "payable": false,
      "stateMutability": "nonpayable",
      "type": "function"
    }
  ],
  "bytecode": "0x60806040523480156200001157600080fd5b5060405162001950380380620019508339818101604052620000379190810190620000d6565b336000806101000a81548173ffffffffffffffffffffffffffffffffffffffff021916908373ffffffffffffffffffffffffffffffffffffffff16021790555080600160006101000a81548173ffffffffffffffffffffffffffffffffffffffff021916908373ffffffffffffffffffffffffffffffffffffffff1602179055505062000164565b600081519050620000d0816200014a565b92915050565b600060208284031215620000e957600080fd5b6000620000f984828501620000bf565b91505092915050565b60006200010f826200012a565b9050919050565b6000620001238262000102565b9050919050565b600073ffffffffffffffffffffffffffffffffffffffff82169050919050565b620001558162000116565b81146200016157600080fd5b50565b6117dc80620001746000396000f3fe608060405234801561001057600080fd5b50600436106100575760003560e01c8063142e15421461005c5780638da5cb5b14610078578063a0e1995e14610096578063ae55c888146100b2578063d1384eb6146100e8575b600080fd5b610076600480360361007191908101906110c5565b610106565b005b610080610367565b60405161008d919061141e565b60405180910390f35b6100b060048036036100ab91908101906111c9565b61038c565b005b6100cc60048036036100c791908101906110c5565b61080e565b6040516100df979695949392919061148a565b60405180910390f35b6100f0610d7d565b6040516100fd919061146f565b60405180910390f35b60011515600160009054906101000a900473ffffffffffffffffffffffffffffffffffffffff1673ffffffffffffffffffffffffffffffffffffffff1663b350ce3c336040518263ffffffff1660e01b81526004016101659190611439565b60206040518083038186803b15801561017d57600080fd5b505afa158015610191573d6000803e3d6000fd5b505050506040513d601f19601f820116820180604052506101b5919081019061109c565b1515146101f7576040517f08c379a00000000000000000000000000000000000000000000000000000000081526004016101ee90611523565b60405180910390fd5b600061020282610da3565b90506060600260008381526020019081526020016000206002018054600181600116156101000203166002900480601f0160208091040260200160405190810160405280929190818152602001828054600181600116156101000203166002900480156102b05780601f10610285576101008083540402835291602001916102b0565b820191906000526020600020905b81548152906001019060200180831161029357829003601f168201915b505050505090506000815114156102fc576040517f08c379a00000000000000000000000000000000000000000000000000000000081526004016102f390611563565b60405180910390fd5b60016002600084815260200190815260200160002060060160006101000a81548160ff0219169083151502179055507f222e6f0e7dd20e77993dc592413db91f20cfba6c1833b91ee72aeeb0c2dc99ec8260405161035a9190611454565b60405180910390a1505050565b6000809054906101000a900473ffffffffffffffffffffffffffffffffffffffff1681565b60011515600160009054906101000a900473ffffffffffffffffffffffffffffffffffffffff1673ffffffffffffffffffffffffffffffffffffffff1663b350ce3c336040518263ffffffff1660e01b81526004016103eb9190611439565b60206040518083038186803b15801561040357600080fd5b505afa158015610417573d6000803e3d6000fd5b505050506040513d601f19601f8201168201806040525061043b919081019061109c565b15151461047d576040517f08c379a000000000000000000000000000000000000000000000000000000000815260040161047490611523565b60405180910390fd5b600061048885610da3565b90506060600260008381526020019081526020016000206002018054600181600116156101000203166002900480601f0160208091040260200160405190810160405280929190818152602001828054600181600116156101000203166002900480156105365780601f1061050b57610100808354040283529160200191610536565b820191906000526020600020905b81548152906001019060200180831161051957829003601f168201915b505050505090506000815114610581576040517f08c379a000000000000000000000000000000000000000000000000000000000815260040161057890611543565b60405180910390fd5b606080606080600160009054906101000a900473ffffffffffffffffffffffffffffffffffffffff1673ffffffffffffffffffffffffffffffffffffffff16637c0edcdf336040518263ffffffff1660e01b81526004016105e29190611439565b60006040518083038186803b1580156105fa57600080fd5b505afa15801561060e573d6000803e3d6000fd5b505050506040513d6000823e3d601f19601f820116820180604052506106379190810190611106565b9350935093509350600088101580156106505750805188105b61068f576040517f08c379a000000000000000000000000000000000000000000000000000000000815260040161068690611583565b60405180910390fd5b606081898151811061069d57fe5b602002602001015160000151905060008090506040518060e001604052808c81526020018381526020018a8152602001878152602001868152602001858152602001821515815250600260008a81526020019081526020016000206000820151816000019080519060200190610714929190610dce565b506020820151816001019080519060200190610731929190610dce565b50604082015181600201908051906020019061074e929190610dce565b50606082015181600301908051906020019061076b929190610dce565b506080820151816004019080519060200190610788929190610dce565b5060a08201518160050190805190602001906107a5929190610dce565b5060c08201518160060160006101000a81548160ff0219169083151502179055509050507ff54e0f0055ffae318a21890316ed523f8a60aa59aaa279dfdcae7176155ec0db886040516107f89190611454565b60405180910390a1505050505050505050505050565b60608060608060608060008061082389610da3565b905061082d610e4e565b600260008381526020019081526020016000206040518060e0016040529081600082018054600181600116156101000203166002900480601f0160208091040260200160405190810160405280929190818152602001828054600181600116156101000203166002900480156108e45780601f106108b9576101008083540402835291602001916108e4565b820191906000526020600020905b8154815290600101906020018083116108c757829003601f168201915b50505050508152602001600182018054600181600116156101000203166002900480601f0160208091040260200160405190810160405280929190818152602001828054600181600116156101000203166002900480156109865780601f1061095b57610100808354040283529160200191610986565b820191906000526020600020905b81548152906001019060200180831161096957829003601f168201915b50505050508152602001600282018054600181600116156101000203166002900480601f016020809104026020016040519081016040528092919081815260200182805460018160011615610100020316600290048015610a285780601f106109fd57610100808354040283529160200191610a28565b820191906000526020600020905b815481529060010190602001808311610a0b57829003601f168201915b50505050508152602001600382018054600181600116156101000203166002900480601f016020809104026020016040519081016040528092919081815260200182805460018160011615610100020316600290048015610aca5780601f10610a9f57610100808354040283529160200191610aca565b820191906000526020600020905b815481529060010190602001808311610aad57829003601f168201915b50505050508152602001600482018054600181600116156101000203166002900480601f016020809104026020016040519081016040528092919081815260200182805460018160011615610100020316600290048015610b6c5780601f10610b4157610100808354040283529160200191610b6c565b820191906000526020600020905b815481529060010190602001808311610b4f57829003601f168201915b50505050508152602001600582018054600181600116156101000203166002900480601f016020809104026020016040519081016040528092919081815260200182805460018160011615610100020316600290048015610c0e5780601f10610be357610100808354040283529160200191610c0e565b820191906000526020600020905b815481529060010190602001808311610bf157829003601f168201915b505050505081526020016006820160009054906101000a900460ff16151515158152505090506060600260008481526020019081526020016000206002018054600181600116156101000203166002900480601f016020809104026020016040519081016040528092919081815260200182805460018160011615610100020316600290048015610ce05780601f10610cb557610100808354040283529160200191610ce0565b820191906000526020600020905b815481529060010190602001808311610cc357829003601f168201915b50505050509050600081511415610d2c576040517f08c379a0000000000000000000000000000000000000000000000000000000008152600401610d2390611563565b60405180910390fd5b816000015182602001518360400151846060015185608001518660a001518760c001518696508595508494508393508292508191509950995099509950995099509950505050919395979092949650565b600160009054906101000a900473ffffffffffffffffffffffffffffffffffffffff1681565b60006060829050600081511415610dc0576000801b915050610dc9565b60208301519150505b919050565b828054600181600116156101000203166002900490600052602060002090601f016020900481019282601f10610e0f57805160ff1916838001178555610e3d565b82800160010185558215610e3d579182015b82811115610e3c578251825591602001919060010190610e21565b5b509050610e4a9190610e8d565b5090565b6040518060e001604052806060815260200160608152602001606081526020016060815260200160608152602001606081526020016000151581525090565b610eaf91905b80821115610eab576000816000905550600101610e93565b5090565b90565b600082601f830112610ec357600080fd5b8151610ed6610ed1826115d0565b6115a3565b9150818183526020840193506020810190508360005b83811015610f1c5781518601610f028882611037565b845260208401935060208301925050600181019050610eec565b5050505092915050565b600081519050610f358161176b565b92915050565b600082601f830112610f4c57600080fd5b8151610f5f610f5a826115f8565b6115a3565b91508082526020830160208301858383011115610f7b57600080fd5b610f86838284611727565b50505092915050565b600082601f830112610fa057600080fd5b8135610fb3610fae82611624565b6115a3565b91508082526020830160208301858383011115610fcf57600080fd5b610fda838284611718565b50505092915050565b600082601f830112610ff457600080fd5b815161100761100282611624565b6115a3565b9150808252602083016020830185838301111561102357600080fd5b61102e838284611727565b50505092915050565b60006020828403121561104957600080fd5b61105360206115a3565b9050600082015167ffffffffffffffff81111561106f57600080fd5b61107b84828501610f3b565b60008301525092915050565b60008135905061109681611782565b92915050565b6000602082840312156110ae57600080fd5b60006110bc84828501610f26565b91505092915050565b6000602082840312156110d757600080fd5b600082013567ffffffffffffffff8111156110f157600080fd5b6110fd84828501610f8f565b91505092915050565b6000806000806080858703121561111c57600080fd5b600085015167ffffffffffffffff81111561113657600080fd5b61114287828801610fe3565b945050602085015167ffffffffffffffff81111561115f57600080fd5b61116b87828801610fe3565b935050604085015167ffffffffffffffff81111561118857600080fd5b61119487828801610fe3565b925050606085015167ffffffffffffffff8111156111b157600080fd5b6111bd87828801610eb2565b91505092959194509250565b600080600080608085870312156111df57600080fd5b600085013567ffffffffffffffff8111156111f957600080fd5b61120587828801610f8f565b945050602085013567ffffffffffffffff81111561122257600080fd5b61122e87828801610f8f565b935050604061123f87828801611087565b925050606085013567ffffffffffffffff81111561125c57600080fd5b61126887828801610f8f565b91505092959194509250565b61127d816116be565b82525050565b61128c8161166c565b82525050565b61129b8161167e565b82525050565b6112aa8161168a565b82525050565b6112b9816116d0565b82525050565b60006112ca82611650565b6112d4818561165b565b93506112e4818560208601611727565b6112ed8161175a565b840191505092915050565b600061130560208361165b565b91507f496e73746974757465206163636f756e7420646f6573206e6f742065786973746000830152602082019050919050565b600061134560288361165b565b91507f4365727469666963617465207769746820676976656e20696420616c7265616460008301527f79206578697374730000000000000000000000000000000000000000000000006020830152604082019050919050565b60006113ab601d8361165b565b91507f436572746966696361746520696420646f6573206e6f742065786973740000006000830152602082019050919050565b60006113eb60148361165b565b91507f496e76616c696420436f7572736520696e6465780000000000000000000000006000830152602082019050919050565b60006020820190506114336000830184611283565b92915050565b600060208201905061144e6000830184611274565b92915050565b600060208201905061146960008301846112a1565b92915050565b600060208201905061148460008301846112b0565b92915050565b600060e08201905081810360008301526114a4818a6112bf565b905081810360208301526114b881896112bf565b905081810360408301526114cc81886112bf565b905081810360608301526114e081876112bf565b905081810360808301526114f481866112bf565b905081810360a083015261150881856112bf565b905061151760c0830184611292565b98975050505050505050565b6000602082019050818103600083015261153c816112f8565b9050919050565b6000602082019050818103600083015261155c81611338565b9050919050565b6000602082019050818103600083015261157c8161139e565b9050919050565b6000602082019050818103600083015261159c816113de565b9050919050565b6000604051905081810181811067ffffffffffffffff821117156115c657600080fd5b8060405250919050565b600067ffffffffffffffff8211156115e757600080fd5b602082029050602081019050919050565b600067ffffffffffffffff82111561160f57600080fd5b601f19601f8301169050602081019050919050565b600067ffffffffffffffff82111561163b57600080fd5b601f19601f8301169050602081019050919050565b600081519050919050565b600082825260208201905092915050565b600061167782611694565b9050919050565b60008115159050919050565b6000819050919050565b600073ffffffffffffffffffffffffffffffffffffffff82169050919050565b6000819050919050565b60006116c9826116f4565b9050919050565b60006116db826116e2565b9050919050565b60006116ed82611694565b9050919050565b60006116ff82611706565b9050919050565b600061171182611694565b9050919050565b82818337600083830152505050565b60005b8381101561174557808201518184015260208101905061172a565b83811115611754576000848401525b50505050565b6000601f19601f8301169050919050565b6117748161167e565b811461177f57600080fd5b50565b61178b816116b4565b811461179657600080fd5b5056fea365627a7a72315820111b155537184964a336862f815ddeb9c2b9a3a472667f873b27267d9397c4856c6578706572696d656e74616cf564736f6c63430005100040",
  "source": "pragma solidity ^0.5.0;\r\npragma experimental ABIEncoderV2;\r\n\r\nimport \"./Institution.sol\";\r\n\r\ncontract Certification {\r\n    // State Variables\r\n    address public owner;\r\n    Institution public institution;\r\n\r\n    // Mappings\r\n    mapping(bytes32 => Certificate) private certificates;\r\n\r\n    // Events\r\n    event certificateGenerated(bytes32 _certificateId);\r\n    event certificateRevoked(bytes32 _certificateId);\r\n\r\n    constructor(Institution _institution) public {\r\n        owner = msg.sender;\r\n        institution = _institution;\r\n    }\r\n\r\n    struct Certificate {\r\n        // Individual Info\r\n        string candidate_name;\r\n        string course_name;\r\n        string creation_date;\r\n\r\n        // Institute Info\r\n        string institute_name;\r\n        string institute_acronym;\r\n        string institute_link;\r\n\r\n        // Revocation status\r\n        bool revoked;\r\n    }\r\n\r\n    function stringToBytes32(string memory source) private pure returns (bytes32 result) {\r\n        bytes memory tempEmptyStringTest = bytes(source);\r\n        if (tempEmptyStringTest.length == 0) {\r\n            return 0x0;\r\n        }\r\n        assembly {\r\n                result := mload(add(source, 32))\r\n        }\r\n    }\r\n\r\n    function generateCertificate(\r\n        string memory _id,\r\n        string memory _candidate_name,\r\n        uint256 _course_index, \r\n        string memory _creation_date) public {\r\n        require(institution.checkInstitutePermission(msg.sender) == true, \"Institute account does not exist\");\r\n        bytes32 byte_id = stringToBytes32(_id);\r\n        // require(certificates[byte_id].creation_date == 0, \"Certificate with given id already exists\");\r\n        bytes memory tempEmptyStringNameTest = bytes(\r\n            certificates[byte_id].creation_date\r\n        );\r\n        require(\r\n            tempEmptyStringNameTest.length == 0,\r\n            \"Certificate with given id already exists\"\r\n        );\r\n        (string memory _institute_name, string memory _institute_acronym, string memory _institute_link, Institution.Course[] memory _institute_courses) = institution.getInstituteData(msg.sender);\r\n        require(_course_index >= 0 && _course_index < _institute_courses.length, \"Invalid Course index\");\r\n        string memory _course_name = _institute_courses[_course_index].course_name;\r\n        bool revocation_status = false;\r\n        certificates[byte_id] = Certificate(_candidate_name, _course_name, _creation_date, _institute_name, _institute_acronym, _institute_link, revocation_status);\r\n        emit certificateGenerated(byte_id);\r\n    }\r\n\r\n    function getData(string memory _id) public view returns(string memory, string memory, string memory, string memory, string memory, string memory, bool) {\r\n        bytes32 byte_id = stringToBytes32(_id);\r\n        Certificate memory temp = certificates[byte_id];\r\n        // require(certificates[byte_id].creation_date != 0, \"Certificate id does not exist!\");\r\n        bytes memory tempEmptyStringNameTest = bytes(\r\n            certificates[byte_id].creation_date\r\n        );\r\n        require(\r\n            tempEmptyStringNameTest.length != 0,\r\n            \"Certificate id does not exist\"\r\n        );\r\n        return (temp.candidate_name, temp.course_name, temp.creation_date, temp.institute_name, temp.institute_acronym, temp.institute_link, temp.revoked);\r\n    }\r\n\r\n    function revokeCertificate(string memory _id) public {\r\n        require(institution.checkInstitutePermission(msg.sender) == true, \"Institute account does not exist\");\r\n        bytes32 byte_id = stringToBytes32(_id);\r\n        bytes memory tempEmptyStringNameTest = bytes(\r\n            certificates[byte_id].creation_date\r\n        );\r\n        require(\r\n            tempEmptyStringNameTest.length != 0,\r\n            \"Certificate id does not exist\"\r\n        );\r\n        certificates[byte_id].revoked = true;\r\n        emit certificateRevoked(byte_id);\r\n    }\r\n}",
  "sourcePath": "C:\\Tharun_work\\Term_8\\Blockchain\\project\\satoshi-chain\\contracts\\Certification.sol",
  "compiler": {
    "name": "solc",
    "version": "0.5.16+commit.9c3226ce.Emscripten.clang"
  },
  "schemaVersion": "3.4.2",
  "updatedAt": "2021-08-12T14:31:39.736Z",
  "networkType": "ethereum",
  "devdoc": {
    "methods": {}
  },
  "userdoc": {
    "methods": {}
  }
}