{
  "contractName": "Institution",
  "abi": [
    {
      "inputs": [],
      "payable": false,
      "stateMutability": "nonpayable",
      "type": "constructor"
    },
    {
      "anonymous": false,
      "inputs": [
        {
          "indexed": false,
          "internalType": "string",
          "name": "_instituteName",
          "type": "string"
        }
      ],
      "name": "instituteAdded",
      "type": "event"
    },
    {
      "constant": true,
      "inputs": [],
      "name": "owner",
      "outputs": [
        {
          "internalType": "address",
          "name": "",
          "type": "address"
        }
      ],
      "payable": false,
      "stateMutability": "view",
      "type": "function"
    },
    {
      "constant": false,
      "inputs": [
        {
          "internalType": "address",
          "name": "_address",
          "type": "address"
        },
        {
          "internalType": "string",
          "name": "_institute_name",
          "type": "string"
        },
        {
          "internalType": "string",
          "name": "_institute_acronym",
          "type": "string"
        },
        {
          "internalType": "string",
          "name": "_institute_link",
          "type": "string"
        },
        {
          "components": [
            {
              "internalType": "string",
              "name": "course_name",
              "type": "string"
            }
          ],
          "internalType": "struct Institution.Course[]",
          "name": "_institute_courses",
          "type": "tuple[]"
        }
      ],
      "name": "addInstitute",
      "outputs": [
        {
          "internalType": "bool",
          "name": "",
          "type": "bool"
        }
      ],
      "payable": false,
      "stateMutability": "nonpayable",
      "type": "function"
    },
    {
      "constant": true,
      "inputs": [
        {
          "internalType": "address",
          "name": "_address",
          "type": "address"
        }
      ],
      "name": "getInstituteData",
      "outputs": [
        {
          "internalType": "string",
          "name": "",
          "type": "string"
        },
        {
          "internalType": "string",
          "name": "",
          "type": "string"
        },
        {
          "internalType": "string",
          "name": "",
          "type": "string"
        },
        {
          "components": [
            {
              "internalType": "string",
              "name": "course_name",
              "type": "string"
            }
          ],
          "internalType": "struct Institution.Course[]",
          "name": "",
          "type": "tuple[]"
        }
      ],
      "payable": false,
      "stateMutability": "view",
      "type": "function"
    },
    {
      "constant": true,
      "inputs": [
        {
          "internalType": "address",
          "name": "_address",
          "type": "address"
        }
      ],
      "name": "checkInstitutePermission",
      "outputs": [
        {
          "internalType": "bool",
          "name": "",
          "type": "bool"
        }
      ],
      "payable": false,
      "stateMutability": "view",
      "type": "function"
    }
  ],
  "bytecode": "0x608060405234801561001057600080fd5b50336000806101000a81548173ffffffffffffffffffffffffffffffffffffffff021916908373ffffffffffffffffffffffffffffffffffffffff160217905550611391806100606000396000f3fe608060405234801561001057600080fd5b506004361061004c5760003560e01c80630334917c146100515780637c0edcdf146100815780638da5cb5b146100b4578063b350ce3c146100d2575b600080fd5b61006b60048036036100669190810190610d49565b610102565b604051610078919061108a565b60405180910390f35b61009b60048036036100969190810190610d20565b610462565b6040516100ab94939291906110c7565b60405180910390f35b6100bc61084e565b6040516100c9919061106f565b60405180910390f35b6100ec60048036036100e79190810190610d20565b610873565b6040516100f9919061108a565b60405180910390f35b60008060009054906101000a900473ffffffffffffffffffffffffffffffffffffffff1673ffffffffffffffffffffffffffffffffffffffff163373ffffffffffffffffffffffffffffffffffffffff1614610193576040517f08c379a000000000000000000000000000000000000000000000000000000000815260040161018a90611128565b60405180910390fd5b6060600160008873ffffffffffffffffffffffffffffffffffffffff1673ffffffffffffffffffffffffffffffffffffffff1681526020019081526020016000206000018054600181600116156101000203166002900480601f01602080910402602001604051908101604052809291908181526020018280546001816001161561010002031660029004801561026b5780601f106102405761010080835404028352916020019161026b565b820191906000526020600020905b81548152906001019060200180831161024e57829003601f168201915b5050505050905060008151146102b6576040517f08c379a00000000000000000000000000000000000000000000000000000000081526004016102ad90611148565b60405180910390fd5b604051806060016040528087815260200186815260200185815250600160008973ffffffffffffffffffffffffffffffffffffffff1673ffffffffffffffffffffffffffffffffffffffff168152602001908152602001600020600082015181600001908051906020019061032c929190610ad9565b506020820151816001019080519060200190610349929190610ad9565b506040820151816002019080519060200190610366929190610ad9565b5090505060008090505b835181101561042057600260008973ffffffffffffffffffffffffffffffffffffffff1673ffffffffffffffffffffffffffffffffffffffff1681526020019081526020016000208482815181106103c457fe5b6020026020010151908060018154018082558091505090600182039060005260206000200160009091929091909150600082015181600001908051906020019061040f929190610ad9565b505050508080600101915050610370565b507fcc7604fcd5c45ed3c7605e263d6c59f75739c368ef78098126fa9f54443b314f8660405161045091906110a5565b60405180910390a15095945050505050565b606080606080610470610b59565b600160008773ffffffffffffffffffffffffffffffffffffffff1673ffffffffffffffffffffffffffffffffffffffff168152602001908152602001600020604051806060016040529081600082018054600181600116156101000203166002900480601f0160208091040260200160405190810160405280929190818152602001828054600181600116156101000203166002900480156105535780601f1061052857610100808354040283529160200191610553565b820191906000526020600020905b81548152906001019060200180831161053657829003601f168201915b50505050508152602001600182018054600181600116156101000203166002900480601f0160208091040260200160405190810160405280929190818152602001828054600181600116156101000203166002900480156105f55780601f106105ca576101008083540402835291602001916105f5565b820191906000526020600020905b8154815290600101906020018083116105d857829003601f168201915b50505050508152602001600282018054600181600116156101000203166002900480601f0160208091040260200160405190810160405280929190818152602001828054600181600116156101000203166002900480156106975780601f1061066c57610100808354040283529160200191610697565b820191906000526020600020905b81548152906001019060200180831161067a57829003601f168201915b505050505081525050905060608160000151905060008151116106ef576040517f08c379a00000000000000000000000000000000000000000000000000000000081526004016106e690611168565b60405180910390fd5b816000015182602001518360400151600260008b73ffffffffffffffffffffffffffffffffffffffff1673ffffffffffffffffffffffffffffffffffffffff16815260200190815260200160002083935082925081915080805480602002602001604051908101604052809291908181526020016000905b8282101561083757838290600052602060002001604051806020016040529081600082018054600181600116156101000203166002900480601f01602080910402602001604051908101604052809291908181526020018280546001816001161561010002031660029004801561081f5780601f106107f45761010080835404028352916020019161081f565b820191906000526020600020905b81548152906001019060200180831161080257829003601f168201915b50505050508152505081526020019060010190610767565b505050509050955095509550955050509193509193565b6000809054906101000a900473ffffffffffffffffffffffffffffffffffffffff1681565b600061087d610b59565b600160008473ffffffffffffffffffffffffffffffffffffffff1673ffffffffffffffffffffffffffffffffffffffff168152602001908152602001600020604051806060016040529081600082018054600181600116156101000203166002900480601f0160208091040260200160405190810160405280929190818152602001828054600181600116156101000203166002900480156109605780601f1061093557610100808354040283529160200191610960565b820191906000526020600020905b81548152906001019060200180831161094357829003601f168201915b50505050508152602001600182018054600181600116156101000203166002900480601f016020809104026020016040519081016040528092919081815260200182805460018160011615610100020316600290048015610a025780601f106109d757610100808354040283529160200191610a02565b820191906000526020600020905b8154815290600101906020018083116109e557829003601f168201915b50505050508152602001600282018054600181600116156101000203166002900480601f016020809104026020016040519081016040528092919081815260200182805460018160011615610100020316600290048015610aa45780601f10610a7957610100808354040283529160200191610aa4565b820191906000526020600020905b815481529060010190602001808311610a8757829003601f168201915b5050505050815250509050606081600001519050600081511115610acd57600192505050610ad4565b6000925050505b919050565b828054600181600116156101000203166002900490600052602060002090601f016020900481019282601f10610b1a57805160ff1916838001178555610b48565b82800160010185558215610b48579182015b82811115610b47578251825591602001919060010190610b2c565b5b509050610b559190610b7a565b5090565b60405180606001604052806060815260200160608152602001606081525090565b610b9c91905b80821115610b98576000816000905550600101610b80565b5090565b90565b600081359050610bae81611337565b92915050565b600082601f830112610bc557600080fd5b8135610bd8610bd3826111b5565b611188565b9150818183526020840193506020810190508360005b83811015610c1e5781358601610c048882610cd0565b845260208401935060208301925050600181019050610bee565b5050505092915050565b600082601f830112610c3957600080fd5b8135610c4c610c47826111dd565b611188565b91508082526020830160208301858383011115610c6857600080fd5b610c738382846112e4565b50505092915050565b600082601f830112610c8d57600080fd5b8135610ca0610c9b82611209565b611188565b91508082526020830160208301858383011115610cbc57600080fd5b610cc78382846112e4565b50505092915050565b600060208284031215610ce257600080fd5b610cec6020611188565b9050600082013567ffffffffffffffff811115610d0857600080fd5b610d1484828501610c28565b60008301525092915050565b600060208284031215610d3257600080fd5b6000610d4084828501610b9f565b91505092915050565b600080600080600060a08688031215610d6157600080fd5b6000610d6f88828901610b9f565b955050602086013567ffffffffffffffff811115610d8c57600080fd5b610d9888828901610c7c565b945050604086013567ffffffffffffffff811115610db557600080fd5b610dc188828901610c7c565b935050606086013567ffffffffffffffff811115610dde57600080fd5b610dea88828901610c7c565b925050608086013567ffffffffffffffff811115610e0757600080fd5b610e1388828901610bb4565b9150509295509295909350565b6000610e2c8383611045565b905092915050565b610e3d816112a6565b82525050565b6000610e4e82611245565b610e588185611273565b935083602082028501610e6a85611235565b8060005b85811015610ea65784840389528151610e878582610e20565b9450610e9283611266565b925060208a01995050600181019050610e6e565b50829750879550505050505092915050565b610ec1816112b8565b82525050565b6000610ed28261125b565b610edc8185611295565b9350610eec8185602086016112f3565b610ef581611326565b840191505092915050565b6000610f0b82611250565b610f158185611284565b9350610f258185602086016112f3565b610f2e81611326565b840191505092915050565b6000610f46603a83611295565b91507f63616c6c6572206d75737420626520746865206f776e6572202d206f6e6c792060008301527f6f776e65722063616e2061646420616e20696e737469747574650000000000006020830152604082019050919050565b6000610fac602383611295565b91507f496e73746974757465207769746820746f6b656e20616c72656164792065786960008301527f73747300000000000000000000000000000000000000000000000000000000006020830152604082019050919050565b6000611012601983611295565b91507f496e7374697475746520646f6573206e6f7420657869737421000000000000006000830152602082019050919050565b600060208301600083015184820360008601526110628282610f00565b9150508091505092915050565b60006020820190506110846000830184610e34565b92915050565b600060208201905061109f6000830184610eb8565b92915050565b600060208201905081810360008301526110bf8184610ec7565b905092915050565b600060808201905081810360008301526110e18187610ec7565b905081810360208301526110f58186610ec7565b905081810360408301526111098185610ec7565b9050818103606083015261111d8184610e43565b905095945050505050565b6000602082019050818103600083015261114181610f39565b9050919050565b6000602082019050818103600083015261116181610f9f565b9050919050565b6000602082019050818103600083015261118181611005565b9050919050565b6000604051905081810181811067ffffffffffffffff821117156111ab57600080fd5b8060405250919050565b600067ffffffffffffffff8211156111cc57600080fd5b602082029050602081019050919050565b600067ffffffffffffffff8211156111f457600080fd5b601f19601f8301169050602081019050919050565b600067ffffffffffffffff82111561122057600080fd5b601f19601f8301169050602081019050919050565b6000819050602082019050919050565b600081519050919050565b600081519050919050565b600081519050919050565b6000602082019050919050565b600082825260208201905092915050565b600082825260208201905092915050565b600082825260208201905092915050565b60006112b1826112c4565b9050919050565b60008115159050919050565b600073ffffffffffffffffffffffffffffffffffffffff82169050919050565b82818337600083830152505050565b60005b838110156113115780820151818401526020810190506112f6565b83811115611320576000848401525b50505050565b6000601f19601f8301169050919050565b611340816112a6565b811461134b57600080fd5b5056fea365627a7a723158204602cf0825c78b0a260e2d85bad545112815c3e9daa46c2763ca396f359c43686c6578706572696d656e74616cf564736f6c63430005100040",
  "source": "pragma solidity ^0.5.0;\r\npragma experimental ABIEncoderV2;\r\n\r\ncontract Institution {\r\n    // State Variables\r\n    address public owner;\r\n\r\n    // Mappings\r\n    mapping(address => Institute) private institutes; // Institutes Mapping\r\n    mapping(address => Course[]) private instituteCourses; // Courses Mapping\r\n\r\n    // Events\r\n    event instituteAdded(string _instituteName);\r\n\r\n    constructor() public {\r\n        owner = msg.sender;\r\n    }\r\n\r\n    struct Course {\r\n        string course_name;\r\n        // Other attributes can be added\r\n    }\r\n\r\n    struct Institute {\r\n        string institute_name;\r\n        string institute_acronym;\r\n        string institute_link;\r\n    }\r\n\r\n    function stringToBytes32(string memory source)\r\n        private\r\n        pure\r\n        returns (bytes32 result)\r\n    {\r\n        bytes memory tempEmptyStringTest = bytes(source);\r\n        if (tempEmptyStringTest.length == 0) {\r\n            return 0x0;\r\n        }\r\n        assembly {\r\n            result := mload(add(source, 32))\r\n        }\r\n    }\r\n\r\n    // Note: Token \r\n    function addInstitute(\r\n        address _address,\r\n        string memory _institute_name,\r\n        string memory _institute_acronym,\r\n        string memory _institute_link,\r\n        Course[] memory _institute_courses\r\n    ) public returns (bool) {\r\n        // Only owner can add institute\r\n        require(\r\n            msg.sender == owner,\r\n            \"caller must be the owner - only owner can add an institute\"\r\n        );\r\n        // bytes32 byte_id = stringToBytes32(_token);\r\n        // bytes memory tempEmptyStringNameTest = bytes(\r\n        //     institutes[byte_id].institute_name\r\n        // );\r\n        bytes memory tempEmptyStringNameTest = bytes(\r\n            institutes[_address].institute_name\r\n        );\r\n        require(\r\n            tempEmptyStringNameTest.length == 0,\r\n            \"Institute with token already exists\"\r\n        );\r\n        // institutes[byte_id] = Institute(\r\n        //     _institute_name,\r\n        //     _institute_acronym,\r\n        //     _institute_link\r\n        // );\r\n        institutes[_address] = Institute(\r\n            _institute_name,\r\n            _institute_acronym,\r\n            _institute_link\r\n        );\r\n        // instituteCourses[byte_id] = _institute_courses; // UnimplementedFeatureError: Copying of type struct Institution.Course memory[] memory to storage not yet supported.\r\n        // for (uint256 i = 0; i < _institute_courses.length; i++) {\r\n        //     instituteCourses[byte_id].push(_institute_courses[i]);\r\n        // }\r\n        for (uint256 i = 0; i < _institute_courses.length; i++) {\r\n            instituteCourses[_address].push(_institute_courses[i]);\r\n        }\r\n        emit instituteAdded(_institute_name);\r\n    }\r\n\r\n    function getInstituteData(address _address)\r\n        public\r\n        view\r\n        returns (\r\n            string memory,\r\n            string memory,\r\n            string memory,\r\n            Course[] memory\r\n        )\r\n    {\r\n        // bytes32 byte_id = stringToBytes32(_token);\r\n        // Institute memory temp = institutes[byte_id];\r\n        Institute memory temp = institutes[_address];\r\n        bytes memory tempEmptyStringNameTest = bytes(temp.institute_name);\r\n        require(\r\n            tempEmptyStringNameTest.length > 0,\r\n            \"Institute does not exist!\"\r\n        );\r\n        return (\r\n            temp.institute_name,\r\n            temp.institute_acronym,\r\n            temp.institute_link,\r\n            instituteCourses[_address]\r\n        );\r\n    }\r\n\r\n    function checkInstitutePermission(address _address)\r\n        public\r\n        view\r\n        returns (bool)\r\n    {\r\n        // bytes32 byte_id = stringToBytes32(_token);\r\n        // Institute memory temp = institutes[byte_id];\r\n        Institute memory temp = institutes[_address];\r\n        bytes memory tempEmptyStringNameTest = bytes(temp.institute_name);\r\n        if (tempEmptyStringNameTest.length > 0) {\r\n            return true;\r\n        } else {\r\n            return false;\r\n        }\r\n    }\r\n}\r\n",
  "sourcePath": "C:\\Tharun_work\\Term_8\\Blockchain\\project\\satoshi-chain\\contracts\\Institution.sol",
  "compiler": {
    "name": "solc",
    "version": "0.5.16+commit.9c3226ce.Emscripten.clang"
  },
  "schemaVersion": "3.4.2",
  "updatedAt": "2021-08-09T16:50:34.032Z",
  "networkType": "ethereum",
  "devdoc": {
    "methods": {}
  },
  "userdoc": {
    "methods": {}
  }
}