{
  "contractName": "Institution",
  "abi": [
    {
      "inputs": [],
      "payable": false,
      "stateMutability": "nonpayable",
      "type": "constructor"
    },
    {
      "anonymous": false,
      "inputs": [
        {
          "indexed": false,
          "internalType": "string",
          "name": "_instituteName",
          "type": "string"
        }
      ],
      "name": "instituteAdded",
      "type": "event"
    },
    {
      "constant": true,
      "inputs": [],
      "name": "owner",
      "outputs": [
        {
          "internalType": "address",
          "name": "",
          "type": "address"
        }
      ],
      "payable": false,
      "stateMutability": "view",
      "type": "function"
    },
    {
      "constant": false,
      "inputs": [
        {
          "internalType": "address",
          "name": "_address",
          "type": "address"
        },
        {
          "internalType": "string",
          "name": "_institute_name",
          "type": "string"
        },
        {
          "internalType": "string",
          "name": "_institute_acronym",
          "type": "string"
        },
        {
          "internalType": "string",
          "name": "_institute_link",
          "type": "string"
        },
        {
          "components": [
            {
              "internalType": "string",
              "name": "course_name",
              "type": "string"
            }
          ],
          "internalType": "struct Institution.Course[]",
          "name": "_institute_courses",
          "type": "tuple[]"
        }
      ],
      "name": "addInstitute",
      "outputs": [
        {
          "internalType": "bool",
          "name": "",
          "type": "bool"
        }
      ],
      "payable": false,
      "stateMutability": "nonpayable",
      "type": "function"
    },
    {
      "constant": true,
      "inputs": [],
      "name": "getInstituteData",
      "outputs": [
        {
          "internalType": "string",
          "name": "",
          "type": "string"
        },
        {
          "internalType": "string",
          "name": "",
          "type": "string"
        },
        {
          "internalType": "string",
          "name": "",
          "type": "string"
        },
        {
          "components": [
            {
              "internalType": "string",
              "name": "course_name",
              "type": "string"
            }
          ],
          "internalType": "struct Institution.Course[]",
          "name": "",
          "type": "tuple[]"
        }
      ],
      "payable": false,
      "stateMutability": "view",
      "type": "function"
    },
    {
      "constant": true,
      "inputs": [
        {
          "internalType": "address",
          "name": "_address",
          "type": "address"
        }
      ],
      "name": "getInstituteData",
      "outputs": [
        {
          "internalType": "string",
          "name": "",
          "type": "string"
        },
        {
          "internalType": "string",
          "name": "",
          "type": "string"
        },
        {
          "internalType": "string",
          "name": "",
          "type": "string"
        },
        {
          "components": [
            {
              "internalType": "string",
              "name": "course_name",
              "type": "string"
            }
          ],
          "internalType": "struct Institution.Course[]",
          "name": "",
          "type": "tuple[]"
        }
      ],
      "payable": false,
      "stateMutability": "view",
      "type": "function"
    },
    {
      "constant": true,
      "inputs": [
        {
          "internalType": "address",
          "name": "_address",
          "type": "address"
        }
      ],
      "name": "checkInstitutePermission",
      "outputs": [
        {
          "internalType": "bool",
          "name": "",
          "type": "bool"
        }
      ],
      "payable": false,
      "stateMutability": "view",
      "type": "function"
    }
  ],
  "bytecode": "0x608060405234801561001057600080fd5b50336000806101000a81548173ffffffffffffffffffffffffffffffffffffffff021916908373ffffffffffffffffffffffffffffffffffffffff1602179055506119fe806100606000396000f3fe608060405234801561001057600080fd5b50600436106100575760003560e01c80630334917c1461005c578063086f5a141461008c5780637c0edcdf146100ad5780638da5cb5b146100e0578063b350ce3c146100fe575b600080fd5b610076600480360361007191908101906112aa565b61012e565b60405161008391906116b7565b60405180910390f35b61009461048e565b6040516100a494939291906116f4565b60405180910390f35b6100c760048036036100c29190810190611258565b610879565b6040516100d794939291906116f4565b60405180910390f35b6100e8610d71565b6040516100f5919061169c565b60405180910390f35b61011860048036036101139190810190611258565b610d96565b60405161012591906116b7565b60405180910390f35b60008060009054906101000a900473ffffffffffffffffffffffffffffffffffffffff1673ffffffffffffffffffffffffffffffffffffffff163373ffffffffffffffffffffffffffffffffffffffff16146101bf576040517f08c379a00000000000000000000000000000000000000000000000000000000081526004016101b690611755565b60405180910390fd5b6060600160008873ffffffffffffffffffffffffffffffffffffffff1673ffffffffffffffffffffffffffffffffffffffff1681526020019081526020016000206000018054600181600116156101000203166002900480601f0160208091040260200160405190810160405280929190818152602001828054600181600116156101000203166002900480156102975780601f1061026c57610100808354040283529160200191610297565b820191906000526020600020905b81548152906001019060200180831161027a57829003601f168201915b5050505050905060008151146102e2576040517f08c379a00000000000000000000000000000000000000000000000000000000081526004016102d990611775565b60405180910390fd5b604051806060016040528087815260200186815260200185815250600160008973ffffffffffffffffffffffffffffffffffffffff1673ffffffffffffffffffffffffffffffffffffffff1681526020019081526020016000206000820151816000019080519060200190610358929190610ffc565b506020820151816001019080519060200190610375929190610ffc565b506040820151816002019080519060200190610392929190610ffc565b5090505060008090505b835181101561044c57600260008973ffffffffffffffffffffffffffffffffffffffff1673ffffffffffffffffffffffffffffffffffffffff1681526020019081526020016000208482815181106103f057fe5b6020026020010151908060018154018082558091505090600182039060005260206000200160009091929091909150600082015181600001908051906020019061043b929190610ffc565b50505050808060010191505061039c565b507fcc7604fcd5c45ed3c7605e263d6c59f75739c368ef78098126fa9f54443b314f8660405161047c91906116d2565b60405180910390a15095945050505050565b60608060608061049c61107c565b600160003373ffffffffffffffffffffffffffffffffffffffff1673ffffffffffffffffffffffffffffffffffffffff168152602001908152602001600020604051806060016040529081600082018054600181600116156101000203166002900480601f01602080910402602001604051908101604052809291908181526020018280546001816001161561010002031660029004801561057f5780601f106105545761010080835404028352916020019161057f565b820191906000526020600020905b81548152906001019060200180831161056257829003601f168201915b50505050508152602001600182018054600181600116156101000203166002900480601f0160208091040260200160405190810160405280929190818152602001828054600181600116156101000203166002900480156106215780601f106105f657610100808354040283529160200191610621565b820191906000526020600020905b81548152906001019060200180831161060457829003601f168201915b50505050508152602001600282018054600181600116156101000203166002900480601f0160208091040260200160405190810160405280929190818152602001828054600181600116156101000203166002900480156106c35780601f10610698576101008083540402835291602001916106c3565b820191906000526020600020905b8154815290600101906020018083116106a657829003601f168201915b5050505050815250509050606081600001519050600081511161071b576040517f08c379a000000000000000000000000000000000000000000000000000000000815260040161071290611795565b60405180910390fd5b816000015182602001518360400151600260003373ffffffffffffffffffffffffffffffffffffffff1673ffffffffffffffffffffffffffffffffffffffff16815260200190815260200160002083935082925081915080805480602002602001604051908101604052809291908181526020016000905b8282101561086357838290600052602060002001604051806020016040529081600082018054600181600116156101000203166002900480601f01602080910402602001604051908101604052809291908181526020018280546001816001161561010002031660029004801561084b5780601f106108205761010080835404028352916020019161084b565b820191906000526020600020905b81548152906001019060200180831161082e57829003601f168201915b50505050508152505081526020019060010190610793565b5050505090509550955095509550505090919293565b6060806060806000809054906101000a900473ffffffffffffffffffffffffffffffffffffffff1673ffffffffffffffffffffffffffffffffffffffff163373ffffffffffffffffffffffffffffffffffffffff16638da5cb5b6040518163ffffffff1660e01b815260040160206040518083038186803b1580156108fd57600080fd5b505afa158015610911573d6000803e3d6000fd5b505050506040513d601f19601f820116820180604052506109359190810190611281565b73ffffffffffffffffffffffffffffffffffffffff161461098b576040517f08c379a0000000000000000000000000000000000000000000000000000000008152600401610982906117b5565b60405180910390fd5b61099361107c565b600160008773ffffffffffffffffffffffffffffffffffffffff1673ffffffffffffffffffffffffffffffffffffffff168152602001908152602001600020604051806060016040529081600082018054600181600116156101000203166002900480601f016020809104026020016040519081016040528092919081815260200182805460018160011615610100020316600290048015610a765780601f10610a4b57610100808354040283529160200191610a76565b820191906000526020600020905b815481529060010190602001808311610a5957829003601f168201915b50505050508152602001600182018054600181600116156101000203166002900480601f016020809104026020016040519081016040528092919081815260200182805460018160011615610100020316600290048015610b185780601f10610aed57610100808354040283529160200191610b18565b820191906000526020600020905b815481529060010190602001808311610afb57829003601f168201915b50505050508152602001600282018054600181600116156101000203166002900480601f016020809104026020016040519081016040528092919081815260200182805460018160011615610100020316600290048015610bba5780601f10610b8f57610100808354040283529160200191610bba565b820191906000526020600020905b815481529060010190602001808311610b9d57829003601f168201915b50505050508152505090506060816000015190506000815111610c12576040517f08c379a0000000000000000000000000000000000000000000000000000000008152600401610c09906117d5565b60405180910390fd5b816000015182602001518360400151600260008b73ffffffffffffffffffffffffffffffffffffffff1673ffffffffffffffffffffffffffffffffffffffff16815260200190815260200160002083935082925081915080805480602002602001604051908101604052809291908181526020016000905b82821015610d5a57838290600052602060002001604051806020016040529081600082018054600181600116156101000203166002900480601f016020809104026020016040519081016040528092919081815260200182805460018160011615610100020316600290048015610d425780601f10610d1757610100808354040283529160200191610d42565b820191906000526020600020905b815481529060010190602001808311610d2557829003601f168201915b50505050508152505081526020019060010190610c8a565b505050509050955095509550955050509193509193565b6000809054906101000a900473ffffffffffffffffffffffffffffffffffffffff1681565b6000610da061107c565b600160008473ffffffffffffffffffffffffffffffffffffffff1673ffffffffffffffffffffffffffffffffffffffff168152602001908152602001600020604051806060016040529081600082018054600181600116156101000203166002900480601f016020809104026020016040519081016040528092919081815260200182805460018160011615610100020316600290048015610e835780601f10610e5857610100808354040283529160200191610e83565b820191906000526020600020905b815481529060010190602001808311610e6657829003601f168201915b50505050508152602001600182018054600181600116156101000203166002900480601f016020809104026020016040519081016040528092919081815260200182805460018160011615610100020316600290048015610f255780601f10610efa57610100808354040283529160200191610f25565b820191906000526020600020905b815481529060010190602001808311610f0857829003601f168201915b50505050508152602001600282018054600181600116156101000203166002900480601f016020809104026020016040519081016040528092919081815260200182805460018160011615610100020316600290048015610fc75780601f10610f9c57610100808354040283529160200191610fc7565b820191906000526020600020905b815481529060010190602001808311610faa57829003601f168201915b5050505050815250509050606081600001519050600081511115610ff057600192505050610ff7565b6000925050505b919050565b828054600181600116156101000203166002900490600052602060002090601f016020900481019282601f1061103d57805160ff191683800117855561106b565b8280016001018555821561106b579182015b8281111561106a57825182559160200191906001019061104f565b5b509050611078919061109d565b5090565b60405180606001604052806060815260200160608152602001606081525090565b6110bf91905b808211156110bb5760008160009055506001016110a3565b5090565b90565b6000813590506110d1816119a4565b92915050565b6000815190506110e6816119a4565b92915050565b600082601f8301126110fd57600080fd5b813561111061110b82611822565b6117f5565b9150818183526020840193506020810190508360005b83811015611156578135860161113c8882611208565b845260208401935060208301925050600181019050611126565b5050505092915050565b600082601f83011261117157600080fd5b813561118461117f8261184a565b6117f5565b915080825260208301602083018583830111156111a057600080fd5b6111ab838284611951565b50505092915050565b600082601f8301126111c557600080fd5b81356111d86111d382611876565b6117f5565b915080825260208301602083018583830111156111f457600080fd5b6111ff838284611951565b50505092915050565b60006020828403121561121a57600080fd5b61122460206117f5565b9050600082013567ffffffffffffffff81111561124057600080fd5b61124c84828501611160565b60008301525092915050565b60006020828403121561126a57600080fd5b6000611278848285016110c2565b91505092915050565b60006020828403121561129357600080fd5b60006112a1848285016110d7565b91505092915050565b600080600080600060a086880312156112c257600080fd5b60006112d0888289016110c2565b955050602086013567ffffffffffffffff8111156112ed57600080fd5b6112f9888289016111b4565b945050604086013567ffffffffffffffff81111561131657600080fd5b611322888289016111b4565b935050606086013567ffffffffffffffff81111561133f57600080fd5b61134b888289016111b4565b925050608086013567ffffffffffffffff81111561136857600080fd5b611374888289016110ec565b9150509295509295909350565b600061138d8383611672565b905092915050565b61139e81611913565b82525050565b60006113af826118b2565b6113b981856118e0565b9350836020820285016113cb856118a2565b8060005b8581101561140757848403895281516113e88582611381565b94506113f3836118d3565b925060208a019950506001810190506113cf565b50829750879550505050505092915050565b61142281611925565b82525050565b6000611433826118c8565b61143d8185611902565b935061144d818560208601611960565b61145681611993565b840191505092915050565b600061146c826118bd565b61147681856118f1565b9350611486818560208601611960565b61148f81611993565b840191505092915050565b60006114a7603a83611902565b91507f63616c6c6572206d75737420626520746865206f776e6572202d206f6e6c792060008301527f6f776e65722063616e2061646420616e20696e737469747574650000000000006020830152604082019050919050565b600061150d602383611902565b91507f496e73746974757465207769746820746f6b656e20616c72656164792065786960008301527f73747300000000000000000000000000000000000000000000000000000000006020830152604082019050919050565b6000611573602183611902565b91507f496e73746974757465206163636f756e7420646f6573206e6f7420657869737460008301527f21000000000000000000000000000000000000000000000000000000000000006020830152604082019050919050565b60006115d9602a83611902565b91507f496e636f727265637420736d61727420636f6e7472616374202620617574686f60008301527f72697a6174696f6e7321000000000000000000000000000000000000000000006020830152604082019050919050565b600061163f601983611902565b91507f496e7374697475746520646f6573206e6f7420657869737421000000000000006000830152602082019050919050565b6000602083016000830151848203600086015261168f8282611461565b9150508091505092915050565b60006020820190506116b16000830184611395565b92915050565b60006020820190506116cc6000830184611419565b92915050565b600060208201905081810360008301526116ec8184611428565b905092915050565b6000608082019050818103600083015261170e8187611428565b905081810360208301526117228186611428565b905081810360408301526117368185611428565b9050818103606083015261174a81846113a4565b905095945050505050565b6000602082019050818103600083015261176e8161149a565b9050919050565b6000602082019050818103600083015261178e81611500565b9050919050565b600060208201905081810360008301526117ae81611566565b9050919050565b600060208201905081810360008301526117ce816115cc565b9050919050565b600060208201905081810360008301526117ee81611632565b9050919050565b6000604051905081810181811067ffffffffffffffff8211171561181857600080fd5b8060405250919050565b600067ffffffffffffffff82111561183957600080fd5b602082029050602081019050919050565b600067ffffffffffffffff82111561186157600080fd5b601f19601f8301169050602081019050919050565b600067ffffffffffffffff82111561188d57600080fd5b601f19601f8301169050602081019050919050565b6000819050602082019050919050565b600081519050919050565b600081519050919050565b600081519050919050565b6000602082019050919050565b600082825260208201905092915050565b600082825260208201905092915050565b600082825260208201905092915050565b600061191e82611931565b9050919050565b60008115159050919050565b600073ffffffffffffffffffffffffffffffffffffffff82169050919050565b82818337600083830152505050565b60005b8381101561197e578082015181840152602081019050611963565b8381111561198d576000848401525b50505050565b6000601f19601f8301169050919050565b6119ad81611913565b81146119b857600080fd5b5056fea365627a7a72315820e46cd1874fb1748b697b6293732af15f9e8078ef1245b309befa477c4037a33b6c6578706572696d656e74616cf564736f6c63430005100040",
  "source": "pragma solidity ^0.5.0;\npragma experimental ABIEncoderV2;\n\nimport \"./Certification.sol\";\n\ncontract Institution {\n    // State Variables\n    address public owner;\n\n    // Mappings\n    mapping(address => Institute) private institutes; // Institutes Mapping\n    mapping(address => Course[]) private instituteCourses; // Courses Mapping\n\n    // Events\n    event instituteAdded(string _instituteName);\n\n    constructor() public {\n        owner = msg.sender;\n    }\n\n    struct Course {\n        string course_name;\n        // Other attributes can be added\n    }\n\n    struct Institute {\n        string institute_name;\n        string institute_acronym;\n        string institute_link;\n    }\n\n    function stringToBytes32(string memory source)\n        private\n        pure\n        returns (bytes32 result)\n    {\n        bytes memory tempEmptyStringTest = bytes(source);\n        if (tempEmptyStringTest.length == 0) {\n            return 0x0;\n        }\n        assembly {\n            result := mload(add(source, 32))\n        }\n    }\n\n    function addInstitute(\n        address _address,\n        string memory _institute_name,\n        string memory _institute_acronym,\n        string memory _institute_link,\n        Course[] memory _institute_courses\n    ) public returns (bool) {\n        // Only owner can add institute\n        require(\n            msg.sender == owner,\n            \"caller must be the owner - only owner can add an institute\"\n        );\n        bytes memory tempEmptyStringNameTest = bytes(\n            institutes[_address].institute_name\n        );\n        require(\n            tempEmptyStringNameTest.length == 0,\n            \"Institute with token already exists\"\n        );\n        institutes[_address] = Institute(\n            _institute_name,\n            _institute_acronym,\n            _institute_link\n        );\n        for (uint256 i = 0; i < _institute_courses.length; i++) {\n            instituteCourses[_address].push(_institute_courses[i]);\n        }\n        emit instituteAdded(_institute_name);\n    }\n\n    // Called by Institutions\n    function getInstituteData()\n        public\n        view\n        returns (\n            string memory,\n            string memory,\n            string memory,\n            Course[] memory\n        )\n    {\n        Institute memory temp = institutes[msg.sender];\n        bytes memory tempEmptyStringNameTest = bytes(temp.institute_name);\n        require(\n            tempEmptyStringNameTest.length > 0,\n            \"Institute account does not exist!\"\n        );\n        return (\n            temp.institute_name,\n            temp.institute_acronym,\n            temp.institute_link,\n            instituteCourses[msg.sender]\n        );\n    }\n\n    // Called by Smart Contracts\n    function getInstituteData(address _address)\n        public\n        view\n        returns (\n            string memory,\n            string memory,\n            string memory,\n            Course[] memory\n        )\n    {\n        require(Certification(msg.sender).owner() == owner, \"Incorrect smart contract & authorizations!\");\n        Institute memory temp = institutes[_address];\n        bytes memory tempEmptyStringNameTest = bytes(temp.institute_name);\n        require(\n            tempEmptyStringNameTest.length > 0,\n            \"Institute does not exist!\"\n        );\n        return (\n            temp.institute_name,\n            temp.institute_acronym,\n            temp.institute_link,\n            instituteCourses[_address]\n        );\n    }\n\n    function checkInstitutePermission(address _address)\n        public\n        view\n        returns (bool)\n    {\n        Institute memory temp = institutes[_address];\n        bytes memory tempEmptyStringNameTest = bytes(temp.institute_name);\n        if (tempEmptyStringNameTest.length > 0) {\n            return true;\n        } else {\n            return false;\n        }\n    }\n}\n",
  "sourcePath": "/home/akmal/Desktop/daryllclone/satoshi-certs/contracts/Institution.sol",
  "compiler": {
    "name": "solc",
    "version": "0.5.16+commit.9c3226ce.Emscripten.clang"
  },
  "schemaVersion": "3.4.2",
  "updatedAt": "2021-08-11T03:12:21.026Z",
  "networkType": "ethereum",
  "devdoc": {
    "methods": {}
  },
  "userdoc": {
    "methods": {}
  }
}