{
  "contractName": "Institution",
  "abi": [
    {
      "inputs": [],
      "payable": false,
      "stateMutability": "nonpayable",
      "type": "constructor"
    },
    {
      "anonymous": false,
      "inputs": [
        {
          "indexed": false,
          "internalType": "string",
          "name": "_instituteName",
          "type": "string"
        }
      ],
      "name": "instituteAdded",
      "type": "event"
    },
    {
      "constant": true,
      "inputs": [],
      "name": "owner",
      "outputs": [
        {
          "internalType": "address",
          "name": "",
          "type": "address"
        }
      ],
      "payable": false,
      "stateMutability": "view",
      "type": "function"
    },
    {
      "constant": false,
      "inputs": [
        {
          "internalType": "string",
          "name": "_token",
          "type": "string"
        },
        {
          "internalType": "string",
          "name": "_institute_name",
          "type": "string"
        },
        {
          "internalType": "string",
          "name": "_institute_acronym",
          "type": "string"
        },
        {
          "internalType": "string",
          "name": "_institute_link",
          "type": "string"
        },
        {
          "components": [
            {
              "internalType": "string",
              "name": "course_name",
              "type": "string"
            }
          ],
          "internalType": "struct Institution.Course[]",
          "name": "_institute_courses",
          "type": "tuple[]"
        }
      ],
      "name": "addInstitute",
      "outputs": [
        {
          "internalType": "bool",
          "name": "",
          "type": "bool"
        }
      ],
      "payable": false,
      "stateMutability": "nonpayable",
      "type": "function"
    },
    {
      "constant": true,
      "inputs": [
        {
          "internalType": "string",
          "name": "_token",
          "type": "string"
        }
      ],
      "name": "getInstituteData",
      "outputs": [
        {
          "internalType": "string",
          "name": "",
          "type": "string"
        },
        {
          "internalType": "string",
          "name": "",
          "type": "string"
        },
        {
          "internalType": "string",
          "name": "",
          "type": "string"
        },
        {
          "components": [
            {
              "internalType": "string",
              "name": "course_name",
              "type": "string"
            }
          ],
          "internalType": "struct Institution.Course[]",
          "name": "",
          "type": "tuple[]"
        }
      ],
      "payable": false,
      "stateMutability": "view",
      "type": "function"
    },
    {
      "constant": true,
      "inputs": [
        {
          "internalType": "string",
          "name": "_token",
          "type": "string"
        }
      ],
      "name": "checkInstitutePermission",
      "outputs": [
        {
          "internalType": "bool",
          "name": "",
          "type": "bool"
        }
      ],
      "payable": false,
      "stateMutability": "view",
      "type": "function"
    }
  ],
  "bytecode": "0x608060405234801561001057600080fd5b50336000806101000a81548173ffffffffffffffffffffffffffffffffffffffff021916908373ffffffffffffffffffffffffffffffffffffffff1602179055506112e2806100606000396000f3fe608060405234801561001057600080fd5b506004361061004c5760003560e01c80634506151c1461005157806348c52f49146100845780638da5cb5b146100b4578063f6944f13146100d2575b600080fd5b61006b60048036036100669190810190610c58565b610102565b60405161007b949392919061102f565b60405180910390f35b61009e60048036036100999190810190610c58565b6104a4565b6040516100ab9190610ff2565b60405180910390f35b6100bc6106ec565b6040516100c99190610fd7565b60405180910390f35b6100ec60048036036100e79190810190610c99565b610711565b6040516100f99190610ff2565b60405180910390f35b6060806060806000610113866109fb565b905061011d610a26565b60016000838152602001908152602001600020604051806060016040529081600082018054600181600116156101000203166002900480601f0160208091040260200160405190810160405280929190818152602001828054600181600116156101000203166002900480156101d45780601f106101a9576101008083540402835291602001916101d4565b820191906000526020600020905b8154815290600101906020018083116101b757829003601f168201915b50505050508152602001600182018054600181600116156101000203166002900480601f0160208091040260200160405190810160405280929190818152602001828054600181600116156101000203166002900480156102765780601f1061024b57610100808354040283529160200191610276565b820191906000526020600020905b81548152906001019060200180831161025957829003601f168201915b50505050508152602001600282018054600181600116156101000203166002900480601f0160208091040260200160405190810160405280929190818152602001828054600181600116156101000203166002900480156103185780601f106102ed57610100808354040283529160200191610318565b820191906000526020600020905b8154815290600101906020018083116102fb57829003601f168201915b50505050508152505090506060816000015190506000815111610370576040517f08c379a0000000000000000000000000000000000000000000000000000000008152600401610367906110d0565b60405180910390fd5b8160000151826020015183604001516002600087815260200190815260200160002083935082925081915080805480602002602001604051908101604052809291908181526020016000905b8282101561048c57838290600052602060002001604051806020016040529081600082018054600181600116156101000203166002900480601f0160208091040260200160405190810160405280929190818152602001828054600181600116156101000203166002900480156104745780601f1061044957610100808354040283529160200191610474565b820191906000526020600020905b81548152906001019060200180831161045757829003601f168201915b505050505081525050815260200190600101906103bc565b50505050905096509650965096505050509193509193565b6000806104b0836109fb565b90506104ba610a26565b60016000838152602001908152602001600020604051806060016040529081600082018054600181600116156101000203166002900480601f0160208091040260200160405190810160405280929190818152602001828054600181600116156101000203166002900480156105715780601f1061054657610100808354040283529160200191610571565b820191906000526020600020905b81548152906001019060200180831161055457829003601f168201915b50505050508152602001600182018054600181600116156101000203166002900480601f0160208091040260200160405190810160405280929190818152602001828054600181600116156101000203166002900480156106135780601f106105e857610100808354040283529160200191610613565b820191906000526020600020905b8154815290600101906020018083116105f657829003601f168201915b50505050508152602001600282018054600181600116156101000203166002900480601f0160208091040260200160405190810160405280929190818152602001828054600181600116156101000203166002900480156106b55780601f1061068a576101008083540402835291602001916106b5565b820191906000526020600020905b81548152906001019060200180831161069857829003601f168201915b50505050508152505090506060816000015190506000815111156106df57600193505050506106e7565b600093505050505b919050565b6000809054906101000a900473ffffffffffffffffffffffffffffffffffffffff1681565b60008060009054906101000a900473ffffffffffffffffffffffffffffffffffffffff1673ffffffffffffffffffffffffffffffffffffffff163373ffffffffffffffffffffffffffffffffffffffff16146107a2576040517f08c379a000000000000000000000000000000000000000000000000000000000815260040161079990611090565b60405180910390fd5b60006107ad876109fb565b90506060600160008381526020019081526020016000206000018054600181600116156101000203166002900480601f01602080910402602001604051908101604052809291908181526020018280546001816001161561010002031660029004801561085b5780601f106108305761010080835404028352916020019161085b565b820191906000526020600020905b81548152906001019060200180831161083e57829003601f168201915b5050505050905060008151146108a6576040517f08c379a000000000000000000000000000000000000000000000000000000000815260040161089d906110b0565b60405180910390fd5b6040518060600160405280888152602001878152602001868152506001600084815260200190815260200160002060008201518160000190805190602001906108f0929190610a47565b50602082015181600101908051906020019061090d929190610a47565b50604082015181600201908051906020019061092a929190610a47565b5090505060008090505b84518110156109b8576002600084815260200190815260200160002085828151811061095c57fe5b602002602001015190806001815401808255809150509060018203906000526020600020016000909192909190915060008201518160000190805190602001906109a7929190610a47565b505050508080600101915050610934565b507fcc7604fcd5c45ed3c7605e263d6c59f75739c368ef78098126fa9f54443b314f876040516109e8919061100d565b60405180910390a1505095945050505050565b60006060829050600081511415610a18576000801b915050610a21565b60208301519150505b919050565b60405180606001604052806060815260200160608152602001606081525090565b828054600181600116156101000203166002900490600052602060002090601f016020900481019282601f10610a8857805160ff1916838001178555610ab6565b82800160010185558215610ab6579182015b82811115610ab5578251825591602001919060010190610a9a565b5b509050610ac39190610ac7565b5090565b610ae991905b80821115610ae5576000816000905550600101610acd565b5090565b90565b600082601f830112610afd57600080fd5b8135610b10610b0b8261111d565b6110f0565b9150818183526020840193506020810190508360005b83811015610b565781358601610b3c8882610c08565b845260208401935060208301925050600181019050610b26565b5050505092915050565b600082601f830112610b7157600080fd5b8135610b84610b7f82611145565b6110f0565b91508082526020830160208301858383011115610ba057600080fd5b610bab83828461124c565b50505092915050565b600082601f830112610bc557600080fd5b8135610bd8610bd382611171565b6110f0565b91508082526020830160208301858383011115610bf457600080fd5b610bff83828461124c565b50505092915050565b600060208284031215610c1a57600080fd5b610c2460206110f0565b9050600082013567ffffffffffffffff811115610c4057600080fd5b610c4c84828501610b60565b60008301525092915050565b600060208284031215610c6a57600080fd5b600082013567ffffffffffffffff811115610c8457600080fd5b610c9084828501610bb4565b91505092915050565b600080600080600060a08688031215610cb157600080fd5b600086013567ffffffffffffffff811115610ccb57600080fd5b610cd788828901610bb4565b955050602086013567ffffffffffffffff811115610cf457600080fd5b610d0088828901610bb4565b945050604086013567ffffffffffffffff811115610d1d57600080fd5b610d2988828901610bb4565b935050606086013567ffffffffffffffff811115610d4657600080fd5b610d5288828901610bb4565b925050608086013567ffffffffffffffff811115610d6f57600080fd5b610d7b88828901610aec565b9150509295509295909350565b6000610d948383610fad565b905092915050565b610da58161120e565b82525050565b6000610db6826111ad565b610dc081856111db565b935083602082028501610dd28561119d565b8060005b85811015610e0e5784840389528151610def8582610d88565b9450610dfa836111ce565b925060208a01995050600181019050610dd6565b50829750879550505050505092915050565b610e2981611220565b82525050565b6000610e3a826111c3565b610e4481856111fd565b9350610e5481856020860161125b565b610e5d8161128e565b840191505092915050565b6000610e73826111b8565b610e7d81856111ec565b9350610e8d81856020860161125b565b610e968161128e565b840191505092915050565b6000610eae603a836111fd565b91507f63616c6c6572206d75737420626520746865206f776e6572202d206f6e6c792060008301527f6f776e65722063616e2061646420616e20696e737469747574650000000000006020830152604082019050919050565b6000610f146023836111fd565b91507f496e73746974757465207769746820746f6b656e20616c72656164792065786960008301527f73747300000000000000000000000000000000000000000000000000000000006020830152604082019050919050565b6000610f7a6019836111fd565b91507f496e7374697475746520646f6573206e6f7420657869737421000000000000006000830152602082019050919050565b60006020830160008301518482036000860152610fca8282610e68565b9150508091505092915050565b6000602082019050610fec6000830184610d9c565b92915050565b60006020820190506110076000830184610e20565b92915050565b600060208201905081810360008301526110278184610e2f565b905092915050565b600060808201905081810360008301526110498187610e2f565b9050818103602083015261105d8186610e2f565b905081810360408301526110718185610e2f565b905081810360608301526110858184610dab565b905095945050505050565b600060208201905081810360008301526110a981610ea1565b9050919050565b600060208201905081810360008301526110c981610f07565b9050919050565b600060208201905081810360008301526110e981610f6d565b9050919050565b6000604051905081810181811067ffffffffffffffff8211171561111357600080fd5b8060405250919050565b600067ffffffffffffffff82111561113457600080fd5b602082029050602081019050919050565b600067ffffffffffffffff82111561115c57600080fd5b601f19601f8301169050602081019050919050565b600067ffffffffffffffff82111561118857600080fd5b601f19601f8301169050602081019050919050565b6000819050602082019050919050565b600081519050919050565b600081519050919050565b600081519050919050565b6000602082019050919050565b600082825260208201905092915050565b600082825260208201905092915050565b600082825260208201905092915050565b60006112198261122c565b9050919050565b60008115159050919050565b600073ffffffffffffffffffffffffffffffffffffffff82169050919050565b82818337600083830152505050565b60005b8381101561127957808201518184015260208101905061125e565b83811115611288576000848401525b50505050565b6000601f19601f830116905091905056fea365627a7a72315820c745132e16157159f7b98844228321109f5acfd1e13934dfc8eede6abb5350cc6c6578706572696d656e74616cf564736f6c63430005100040",
  "source": "pragma solidity ^0.5.0;\r\npragma experimental ABIEncoderV2;\r\n\r\ncontract Institution {\r\n    // State Variables\r\n    address public owner;\r\n\r\n    // Mappings\r\n    mapping(bytes32 => Institute) private institutes; // Institutes Mapping\r\n    mapping(bytes32 => Course[]) private instituteCourses; // Courses Mapping\r\n\r\n    // Events\r\n    event instituteAdded(string _instituteName);\r\n\r\n    constructor() public {\r\n        owner = msg.sender;\r\n    }\r\n\r\n    struct Course {\r\n        // TODO: Check if there are other variables for Course struct\r\n        string course_name;\r\n        // string course_acronym;\r\n        // string course_link;\r\n    }\r\n\r\n    struct Institute {\r\n        string institute_name;\r\n        string institute_acronym;\r\n        string institute_link;\r\n    }\r\n\r\n    function stringToBytes32(string memory source)\r\n        private\r\n        pure\r\n        returns (bytes32 result)\r\n    {\r\n        bytes memory tempEmptyStringTest = bytes(source);\r\n        if (tempEmptyStringTest.length == 0) {\r\n            return 0x0;\r\n        }\r\n        assembly {\r\n            result := mload(add(source, 32))\r\n        }\r\n    }\r\n\r\n    function addInstitute(\r\n        string memory _token,\r\n        string memory _institute_name,\r\n        string memory _institute_acronym,\r\n        string memory _institute_link,\r\n        Course[] memory _institute_courses\r\n    ) public returns (bool) {\r\n        // Only owner can add institute\r\n        require(\r\n            msg.sender == owner,\r\n            \"caller must be the owner - only owner can add an institute\"\r\n        );\r\n        bytes32 byte_id = stringToBytes32(_token);\r\n        bytes memory tempEmptyStringNameTest = bytes(\r\n            institutes[byte_id].institute_name\r\n        );\r\n        require(\r\n            tempEmptyStringNameTest.length == 0,\r\n            \"Institute with token already exists\"\r\n        );\r\n        institutes[byte_id] = Institute(\r\n            _institute_name,\r\n            _institute_acronym,\r\n            _institute_link\r\n        );\r\n        // instituteCourses[byte_id] = _institute_courses; // UnimplementedFeatureError: Copying of type struct Institution.Course memory[] memory to storage not yet supported.\r\n        for (uint256 i = 0; i < _institute_courses.length; i++) {\r\n            instituteCourses[byte_id].push(_institute_courses[i]);\r\n        }\r\n        emit instituteAdded(_institute_name);\r\n    }\r\n\r\n    function getInstituteData(string memory _token)\r\n        public\r\n        view\r\n        returns (\r\n            string memory,\r\n            string memory,\r\n            string memory,\r\n            Course[] memory\r\n        )\r\n    {\r\n        bytes32 byte_id = stringToBytes32(_token);\r\n        Institute memory temp = institutes[byte_id];\r\n        bytes memory tempEmptyStringNameTest = bytes(temp.institute_name);\r\n        require(\r\n            tempEmptyStringNameTest.length > 0,\r\n            \"Institute does not exist!\"\r\n        );\r\n        return (\r\n            temp.institute_name,\r\n            temp.institute_acronym,\r\n            temp.institute_link,\r\n            instituteCourses[byte_id]\r\n        );\r\n    }\r\n\r\n    function checkInstitutePermission(string memory _token)\r\n        public\r\n        view\r\n        returns (bool)\r\n    {\r\n        bytes32 byte_id = stringToBytes32(_token);\r\n        Institute memory temp = institutes[byte_id];\r\n        bytes memory tempEmptyStringNameTest = bytes(temp.institute_name);\r\n        if (tempEmptyStringNameTest.length > 0) {\r\n            return true;\r\n        } else {\r\n            return false;\r\n        }\r\n    }\r\n}\r\n",
  "sourcePath": "C:\\Tharun_work\\Term_8\\Blockchain\\project\\satoshi-chain\\contracts\\Institution.sol",
  "compiler": {
    "name": "solc",
    "version": "0.5.16+commit.9c3226ce.Emscripten.clang"
  },
  "schemaVersion": "3.4.2",
  "updatedAt": "2021-08-09T12:31:38.003Z",
  "networkType": "ethereum",
  "devdoc": {
    "methods": {}
  },
  "userdoc": {
    "methods": {}
  }
}